:020000040800F2
:10000000F0160020890100084F1E0008D7190008CB
:100010004D1E00081303000805250008000000001D
:10002000000000000000000000000000531E000857
:100030005703000800000000511E0008551E00086C
:10004000A3010008A3010008A3010008A301000800
:10005000A3010008A3010008A3010008A3010008F0
:10006000A3010008A3010008A3010008A3010008E0
:10007000A3010008A30100081503000821030008DC
:10008000A3010008A3010008A3010008A3010008C0
:10009000A3010008A3010008A3010008A3010008B0
:1000A000A3010008A3010008A3010008A3010008A0
:1000B000A3010008B91E0008C51E0008A30100081E
:1000C000A3010008A3010008A3010008A301000880
:1000D000A3010008F9240008A3010008A3010008F7
:1000E000A3010008A3010008A301000800F002F822
:1000F00000F03AF80AA090E8000C82448344AAF188
:100100000107DA4501D100F02FF8AFF2090EBAE885
:100110000F0013F0010F18BFFB1A43F0010318473B
:1001200084250000A4250000103A24BF78C878C1B7
:10013000FAD8520724BF30C830C144BF04680C60ED
:10014000704700000023002400250026103A28BF35
:1001500078C1FBD8520728BF30C148BF0B60704739
:100160001FB51FBD10B510BD00F099F81146FFF77F
:10017000F7FF02F0D9F900F0B7F803B4FFF7F2FF88
:1001800003BC00F0BFF80000094880470948004759
:10019000FEE7FEE7FEE7FEE7FEE7FEE7FEE7FEE737
:1001A000FEE7FEE704480549054A064B7047000094
:1001B000B51E0008ED000008F0100020F016002029
:1001C000F0120020F012002010B5431C02E010F8DD
:1001D000011B71B18107FAD14FF0013202C88C1AAC
:1001E0008C4314EAC211F9D0C01A0A0603D0C01E0B
:1001F00010BDC01A10BD0A0401D0801E10BD090236
:10020000FCD0401E10BD4FF000020429C0F0128047
:1002100010F0030C00F01B80CCF1040CBCF1020FB9
:1002200018BF00F8012BA8BF20F8022BA1EB0C018E
:1002300000F00DB85FEAC17C24BF00F8012B00F884
:10024000012B48BF00F8012B70474FF0000200B5AA
:10025000134694469646203922BFA0E80C50A0E8E9
:100260000C50B1F12001BFF4F7AF090728BFA0E897
:100270000C5048BF0CC05DF804EB890028BF40F863
:10028000042B08BF704748BF20F8022B11F0804FA5
:1002900018BF00F8012B70477047704770477546CC
:1002A00000F02CF8AE4605006946534620F00700E2
:1002B000854618B020B5FFF775FFBDE820404FF028
:1002C00000064FF000074FF000084FF0000B21F040
:1002D0000701AC46ACE8C009ACE8C009ACE8C0090D
:1002E000ACE8C0098D46704710B50446AFF30080F6
:1002F0002046BDE81040FFF740BF000000487047AF
:100300009010002001491820ABBEFEE72600020035
:100310007047FEE7014800F0A1B800005801002036
:10032000014800F09BB800001401002030B590F89F
:1003300040500124AC40C56B6C6004686360436846
:10034000102B036803D099600068C26030BD9A60CA
:100350000068C16030BD704772B64FF0E02001699F
:1003600021F00201016170474FF0E020016941F086
:100370000201016162B6704772B6FEE710B590F8EF
:1003800021100022022905D00421816380F8202059
:10039000012010BD01680B6823F00E030B6001689B
:1003A0000B6823F001030B6090F84030C46B01210F
:1003B00001FA03F3636080F8211080F820201046D2
:1003C00010BD000010B590F821100024022903D0C0
:1003D0000421816301243DE001680A6822F00E02D5
:1003E0000A6001680A6822F001020A601A4A01687C
:1003F000914201D1012121E0174A1432914201D1E9
:1004000010211BE0144A2832914201D1891515E0D0
:10041000114A3C32914201D189140FE00E4A503208
:10042000914202D14FF4803108E00B4A643291428C
:1004300002D14FF4801101E04FF08071064A083A72
:100440005160012180F82110002180F82010416BBB
:1004500001B18847204610BD080002402DE9F05F39
:10046000C16B0C6801680B68D0F840C0042202FA26
:100470000CF2494DDFF824A1494E4A4FDFF828B16C
:10048000DFF828E122422CD05A072AD50A689206C2
:1004900003D40A6822F004020A600168A94201D16B
:1004A000042219E0514501D1402215E0B14202D1A8
:1004B0004FF4806210E0B94202D14FF480420BE069
:1004C000594502D14FF4802206E0714502D14FF424
:1004D000800201E04FF080622F4908394A60C16A0A
:1004E0003BE04FF0020808FA0CF818EA040F4FF04E
:1004F00000094FF0010235D05FEA837832D50B68EE
:100500009B0605D40B6823F00A030B6080F82120BA
:100510000168A94201D1022219E0514501D12022EE
:1005200015E0B14202D14FF4007210E0B94202D19D
:100530004FF400520BE0594502D14FF4003206E06F
:10054000714502D14FF4001201E04FF000721249E0
:1005500008394A6080F82090816A00291AD0BDE8E5
:10056000F05F0847082505FA0CF5254212D01B0755
:1005700010D50B6823F00E030B6090F84010C36B8E
:1005800002FA01F15960826380F8212080F82090FE
:10059000016BE2E7BDE8F09F080002401C0002404A
:1005A0003000024044000240580002406C0002400B
:1005B00030B528B308C8134914221944B1FBF2F12D
:1005C0008900C16310498163022141771A6843F6AB
:1005D000F0718A43D0E900142143D0E902452C434D
:1005E0002143046921434469214384692143114320
:1005F000196000214163012242770177084630BD2E
:10060000012030BDF8FFFDBF0000024070B5044678
:1006100090F82000002501280CD0012084F820004B
:1006200094F821600020012E06D084F820000225D5
:10063000284670BD022070BD022684F82160A063A8
:100640002068066826F0010606602046FFF76EFE69
:10065000E06A00282068016802D041F00E0106E03F
:1006600021F0040101602068016841F00A01016085
:100670002068016841F001010160D9E770B50446C6
:1006800000F004F90546601C02D0044800780444D8
:1006900000F0FCF8401BA042FAD370BD000000201F
:1006A0002DE9F84FDFF8B8910024A9F1040B234697
:1006B0000F2709F1040AABF1040EC9E00125A5409A
:1006C0002A40AA427DD1674ED1F804C0ACEB06089F
:1006D000B44532D014DCBCF1030F3AD009DCBCF1D4
:1006E000000F2AD0BCF1010F1CD0BCF1020F31D198
:1006F0001DE0BCF1110F17D0BCF1120F2AD119E087
:10070000B8F5881F19D006DCB8F5803F15D0B8F5CC
:10071000801F1FD111E0B8F5001F0ED0B8F5041FDF
:1007200018D10AE0CB6815E0CB681B1D12E0CB683E
:1007300008330FE0CB680C330CE08B682BB1012B36
:100740004FF0080303D0456104E0042302E0056193
:1007500000E00023FF2A01D8064601E000F104066C
:100760004FEA840501D9A5F12005D6F8008007FAE3
:1007700005FC28EA0C0803FA05F548EA0508C6F85E
:1007800000804D68ED0062D5374DAE6946F0010638
:10079000AE61AD6924F0030605F001050095334D07
:1007A00006EB050CDCF80850A607360F07FA06F82A
:1007B00025EA0805DFF8B880404503D14FF000086E
:1007C00017E044E0DFF8AC80404502D14FF001086B
:1007D0000FE0DFF8A480404502D14FF0020808E0A6
:1007E000DFF89880404502D14FF0030801E04FF058
:1007F000040808FA06F848EA0508CCF808804D68AD
:10080000D9F80060ED024D4601D5164300E096434D
:100810002E604D68DAF80060AD02554601D51643EA
:1008200000E096432E604D68DBF80060AD035D4646
:1008300001D5164300E096432E604D68DEF8006057
:10084000ED03754601D5164300E096432E60641C07
:100850000D682A46E5407FF431AFBDE8F88F00000F
:100860000804014000001110001002400000014087
:1008700000080140000C014000100140001401403C
:100880000AB1016170470904FBE700000148806874
:10089000704700000000002002488168027811447F
:1008A0008160704700000020074810B5016841F0E2
:1008B00010010160032000F0A1F80F2000F006F8FD
:1008C00000F050F8002010BD0020024030B5054671
:1008D0001F4887B0C16941F00401C161C06906A920
:1008E00000F00400009001A800F030F90498B0B1C5
:1008F00000F04CF940001749174AB0FBF1F11748D6
:10090000491E0260416040F2E7320021C0E9032144
:100910008160816100F046FB040003D015E000F027
:1009200035F9E8E70D4800F093FB04000DD11E20D7
:1009300000F036F8102D07D2002229461E2000F0C4
:100940003DF80748056000E0012407B0204630BDAF
:100950000010024040420F00000800409C010020AF
:10096000040000200C4808B5816941F00101816153
:10097000816901F001010091C16941F08051C161BB
:10098000C06900F0805000900448416821F0E061A7
:1009900041F00071416008BD0010024000000140BC
:1009A000002809DB00F01F0201219140400980006E
:1009B00000F1E020C0F8001170470000F0B40E4BC9
:1009C0001B680C46C3F30223C3F10705042D00D9AD
:1009D0000425191D072901D2002300E0DB1E012692
:1009E00006FA05F1491E214099409E40761E1640A8
:1009F0003143F0BC01F087BD0CED00E0064900F08A
:100A0000070208684FF6FF03184040EA0220034A35
:100A100010430860704700000CED00E00000FA058C
:100A20002DE9F0470F46050061D0434E306800F0D5
:100A30000700B84209D2306820F007003843306020
:100A4000306800F00700B84251D128683B4C81075C
:100A500012D5400703D5606840F4E06060602878F4
:100A6000000703D5606840F4605060606068A96862
:100A700020F0F000084360602878C00728D068683C
:100A8000012810D02168022810D0890700292EDA09
:100A9000616821F0030101436160FFF7F7FE8046C2
:100AA00041F288390DE021688903EFE78901EDE71C
:100AB000FFF7ECFEA0EB0801494502D90320BDE891
:100AC000F0876068696800F00C00B0EB810FEFD12F
:100AD000306800F00700B8420BD9306820F00700FA
:100AE00038433060306800F00700B84201D0012080
:100AF000E5E72878400705D56068E96820F4E060FC
:100B0000084360602878000706D56068296920F4EA
:100B1000605040EAC100606000F058F86168084A1F
:100B2000C1F30311515CC8400649086006480068DB
:100B3000FFF7CCFE0020C2E7002002400010024078
:100B40008A2600080C000020040000200F2202600A
:100B50000C4A536803F003034360536803F0F00347
:100B60008360536803F4E063C36052684FF4E0634A
:100B700003EAD20202610448006800F0070008603E
:100B80007047000000100240002002400448054960
:100B900000684968044AC1F30221515CC8407047AB
:100BA0000C000020001002409A2600080448054965
:100BB00000684968044AC1F3C221515CC8407047CB
:100BC0000C000020001002409A2600080E4A5168CE
:100BD0000E4801F00C03042B11D0082B0FD10C4848
:100BE000C1F38343C903C05C0AD55168084AC1F305
:100BF0004041921E515C054A5043B0FBF1F07047F2
:100C000004494843704700000010024000127A0077
:100C10007A26000800093D002DE9F84F040070D045
:100C20002078C04DC00749D06868C0F38100012812
:100C300007D06868C0F38100022809D16868C00342
:100C400006D52868800339D560680028E7D035E0EC
:100C50006068B0F5803F0BD010B1B0F5A02F11D077
:100C6000286820F480302860286820F4802002E082
:100C7000286840F480302860606890B1FFF706FE75
:100C800006460AE0286840F480202860F0E700BFAC
:100C9000FFF7FCFD801B642873D828688003F7D514
:100CA0000CE0FFF7F3FD064605E000BFFFF7EEFDA1
:100CB000801B6428F0D828688003F7D420789A4EE7
:100CC00080074FF001094FF0000839D5686810F02F
:100CD0000C0F07D06868C0F38100022809D168684A
:100CE000C00306D42868800714D52069012808D1DC
:100CF00010E02069B0B1C6F80090FFF7C7FD0746C5
:100D000005E00AE1FFF7C2FDC01B0228C4D828682D
:100D10008007F7D52868616920F0F80040EAC10033
:100D200028600DE0C6F80080FFF7B0FD074604E03C
:100D3000FFF7ACFDC01B022823D828688007F7D432
:100D4000207800072CD57948A169D9B1C0F8009066
:100D5000FFF79CFD074604E0FFF798FDC01B022843
:100D60000FD8686A8007F7D571484FF4FA510068C8
:100D7000B0FBF1F0009000BF0098411E0091FAD244
:100D80000EE080E0C0F80080FFF780FD074604E039
:100D9000FFF77CFDC01B022875D8686A8007F7D46E
:100DA0002078400760D5E8690027C00008D4E869CA
:100DB00040F08050E861E869012700F08050009021
:100DC0005C480168C90513D40168834641F4807109
:100DD0000160FFF75BFD824606E000BFFFF756FDAE
:100DE000A0EB0A0064284ED8DBF80000C005F5D55A
:100DF000E06801280AD008B1052813D0286A20F03D
:100E000001002862286A20F0040002E0286A40F00D
:100E100001002862E06841F2883B98B1FFF736FD97
:100E200082460BE0286A40F004002862EEE700BF2B
:100E3000FFF72CFDA0EB0A0159455AD8286A800714
:100E4000F6D50CE0FFF722FD824605E0FFF71EFD18
:100E5000A0EB0A0159454CD8286A8007F6D41FB187
:100E6000E86920F08050E861E06988B36968C1F3FF
:100E70008101022944D00228C6F8608004D0FFF71F
:100E800005FD044638E034E0FFF700FD074604E0C6
:100E9000FFF7FCFCC01B02282BD828688001F7D480
:100EA000206AB0F5803F05D16868A16820F4003061
:100EB00008436860D4E908010843696821F47411A3
:100EC00008436860C6F86090FFF7E0FC044606E05F
:100ED00025E000BFFFF7DAFC001B022809D82868CC
:100EE0008001F7D51BE000BFFFF7D0FC001B0228F4
:100EF00002D90320BDE8F88F28688001F4D40EE001
:100F00000128F7D06868226A00F48031914204D148
:100F1000616A00F47010884201D00120EAE70020E5
:100F2000E8E7000000100240000042428004424214
:100F30000C000020007000407047704770B590F8BA
:100F40003C20012A26D0012480F83C40022280F86F
:100F50003D2003685A689D6822F070060A68324393
:100F60005A600D4B02689A4208D0B2F1804F05D00A
:100F70000A4B9A4202D00A4B9A4204D1496825F0A2
:100F800080031943916080F83D40002180F83C10B7
:100F9000084670BD022070BD002C014000040040D6
:100FA0000008004010B5040003D094F83D0010B1D3
:100FB00007E0012010BD002084F83C00204600F02E
:100FC0001FF8022084F83D00211D206800F080FFFA
:100FD000012084F8460084F83E0084F83F0084F83D
:100FE000400084F8410084F8420084F8430084F80B
:100FF000440084F8450084F83D00002010BD000046
:1010000008B501681048B1F1804F14D00F4A9142E1
:1010100019D1C16941F00201C161C069002200F02B
:101020000200009011461D20FFF7C8FCBDE80840F3
:101030001D20FFF7B5BCC16941F00101C161C06964
:1010400000F00100009008BD0010024000040040C4
:1010500090F83D10012901D001207047022180F84D
:101060003D100168CA6842F00102CA6000680B497D
:10107000884208D0B0F1804F05D00949884202D09B
:101080000849884204D1816801F00701062903D08C
:10109000016841F00101016000207047002C01400F
:1010A000000400400008004070B5044690F83C0081
:1010B0000025012817D0012684F83C60022084F81E
:1010C0003D002068826822F0770222F47F4282602D
:1010D0000868502838D00DDC20284FD005DC90B3AC
:1010E000102811D14AE0022070BD302846D0402897
:1010F0000AD13BE060282FD070280DD0B0F5805F7A
:1011000003D0B0F5005F12D0012584F83D600020C7
:1011100084F83C00284670BDCB68D1E901212068E5
:1011200000F01FFF2068816841F0770109E0CB687B
:10113000D1E90121206800F014FF2068816841F4A2
:1011400080418160E1E719E0CA684968206800F0E1
:10115000BDFF5021206806E0CA684968206800F099
:10116000C6FF6021206800F006FFCEE7CA68496824
:10117000206800F0ABFF40212068F4E722680146B8
:101180001046F0E770472DE9F04104460068C66854
:1011900005694FF00007A90713D5B10711D5F91E4E
:1011A000016101202077206880698007204602D0F5
:1011B000FFF7E8FF04E000F0A5F8204600F037F95B
:1011C0002777680716D5700714D521686FF00400DB
:1011D0000861022020772068806910F4407F204653
:1011E00002D0FFF7CFFF04E000F08CF8204600F0BB
:1011F0001EF92777280715D5300713D521686FF01A
:1012000008000861042020772068C0698007204614
:1012100002D0FFF7B7FF04E000F074F8204600F0BA
:1012200006F92777E80616D5F00614D521686FF081
:1012300010000861082020772068C06910F4407F02
:10124000204602D0FFF79EFF04E000F05BF8204646
:1012500000F0EDF82777E80708D0F00706D02168FE
:101260006FF001000861204600F030F9280608D52B
:10127000300606D521686FF0800008612046FFF730
:101280005BFE680608D5700606D521686FF0400041
:101290000861204600F024F9A8060AD5B00608D552
:1012A00021686FF0200008612046BDE8F041FFF79B
:1012B00044BEBDE8F081000000B585B0002100917A
:1012C00001910291039100680B49884211D10B48AA
:1012D000816941F0080181618069694600F0080078
:1012E0000490012000900220019003900448FFF731
:1012F000D7F905B000BD0000000400400010024016
:10130000000C0140704770B5044690F83C00002680
:101310000D4601280FD0012084F83C006AB1042A50
:101320001DD0082A2FD00C2A3FD00126002084F897
:101330003C00304670BD022070BD206800F024FEE5
:101340002068816941F0080181612068816921F08C
:1013500004018161206881692A69114311E02068D4
:1013600000F03AFE2068816941F4006181612068E3
:10137000816921F480618161206881692A6941EA7B
:1013800002218161D2E7206800F052FE2068C16925
:1013900041F00801C1612068C16921F00401C16107
:1013A0002068C1692A69114311E0206800F06CFED1
:1013B0002068C16941F40061C1612068C16921F4FC
:1013C0008061C1612068C1692A6941EA0221C16165
:1013D000ACE710B5040003D094F83D0010B107E06D
:1013E000012010BD002084F83C00204600F01EF8CB
:1013F000022084F83D00211D206800F069FD0120D5
:1014000084F8460084F83E0084F83F0084F84000E9
:1014100084F8410084F8420084F8430084F84400D2
:1014200084F8450084F83D00002010BD70477047E7
:1014300010B50446022249B104290ED0082913D060
:1014400094F84100012816D0012010BD94F83E0008
:101450000128F9D184F83E200FE094F83F000128DC
:10146000F2D184F83F2008E094F840000128EBD145
:1014700084F8402001E084F841200122206800F037
:1014800063FD0F492068884203D1426C42F4004258
:1014900042642068884208D0B0F1804F05D00949E5
:1014A000884202D00849884204D1816801F00701CE
:1014B000062903D0016841F001010160002010BD40
:1014C000002C01400004004000080040006803496F
:1014D000884201D1FFF7E0B97047000000080040E2
:1014E000704738B5044690F84200202801D0022009
:1014F00038BD51B14AB1012020630020606320460D
:1015000000F078FF216B012901D0012038BD21684E
:101510000A684968009121680C3151E8002F42F0B7
:10152000100241E80023002BF5D138BDF0B40F4A7A
:10153000904218D10F4D002001240D4AA5F18006DC
:1015400009E0946053882F5CF7545B1C03F07F0321
:10155000401C538080B28842F3D3F0BC80220549FE
:101560000248FFF7BEBFF0BC70470000CC0000206F
:101570001000002010100020704710F8411F407824
:1015800008437047F8B5016804460868CA684B69A3
:1015900010F00F0F4FF0000559D003F0010602F4D0
:1015A0009077374365D0C10705D0D10503D5616C6D
:1015B00041F001016164410705D5D90703D0616C91
:1015C00041F002016164810705D5D90703D0616C40
:1015D00041F004016164010707D502F020013143A5
:1015E00003D0616C41F008016164616C00293AD05C
:1015F000800604D5900602D5204600F03EFE206805
:101600004069616CC0F38010090700D460B32046C4
:1016100000F0FEFD20684069400621D520681430A6
:1016200050E8001F21F0400140E80012002AF5D1E7
:10163000E06BA8B16D494163E06BFEF7C3FE002883
:1016400011D0E06B416B01B0BDE8F0400847830664
:101650000FD593060DD52046BDE8F84000F00DBE2D
:101660002046FFF789FFF8BD2046FFF785FF656438
:10167000F8BD266B2023012E7CD1C6067AD5D6066E
:1016800078D508684868009048694FF0020640061F
:1016900040D5E16B086840680004000CE8D0A28DDA
:1016A0008242E5D9E085886920282DD020680C3059
:1016B00050E8001F21F4807140E80012002AF5D1A3
:1016C0002068143050E8001F21F0010140E80012AA
:1016D000002AF5D12068143050E8001F21F04001A5
:1016E00040E80012002AF5D184F8423025632068D2
:1016F0000C3050E8001F21F0100140E80012002AD1
:10170000F5D1E06BFEF73AFE6663A08DE18D401ADD
:1017100081B22AE0A08DE18D401A81B2E08D0028CF
:10172000A6D00029A4D022680C3252E8000F20F481
:10173000907042E80007002FF5D12068143050E87F
:10174000002F22F0010240E80027002FF5D184F895
:101750004230256320680C3050E8002F22F0100240
:1017600040E80023002BF5D166632046FFF7DEFE3C
:10177000F8BDFFE705062BD5150629D594F84100DD
:101780002128F5D1A068B0F5805F01D12069B0B102
:10179000206A411C2162216800784860E08C401E6C
:1017A0000004000CE084E3D12068C16821F08001CE
:1017B000C1602068C16841F04001C160D8E7206A7B
:1017C0000088C0F308004860206A801C2062E5E7BA
:1017D0004006CDD55006CBD5CA68204622F040023F
:1017E000CA6084F8413000F0F5F8C1E71321000821
:1017F00070B5040004D094F84100002510B106E053
:10180000012070BD84F84050204600F023F82420C9
:1018100084F841002068C16821F40051C16020466D
:1018200000F08CFD2068016921F49041016120687D
:10183000416921F02A0141612068C16841F40051E9
:10184000C1606564202084F8410084F8420065632B
:10185000002070BDF0B585B00024064600940194C8
:101860000294039400682D49884254D12C48816920
:1018700041F480418161816901F480410491816971
:1018800041F0040181618069264D00F0040004905C
:101890004FF40070009002200190032003906946ED
:1018A0002846FEF7FDFE2815CDE9000469462846C6
:1018B0000294FEF7F5FE1D4D1B488027C5E9000484
:1018C000C5E902472C616C61AC612846EC61FEF70A
:1018D0006FFE08B1FEF750FDF5636E62134D1248BE
:1018E0004435143801C5102091C5104845F81049F9
:1018F00044306C61AC61EC61FEF75AFE08B1FEF752
:101900003BFDB5630022114625206E62FFF756F8B5
:101910002520FFF745F805B0F0BD00000038014074
:10192000001002400008014058000240140100204D
:10193000704770472DE9F843044690F841009846F7
:1019400016460D46202802D00220BDE8F88385B156
:101950007EB100206064212084F84100FEF796FFEC
:10196000A6848146E684A0682027B0F5805F02D077
:1019700003E00120E9E7206910B12E4600250EE0C2
:1019800000260CE08021204600F07CFDA8B9C6B1FD
:1019900016F8010B21684860E08C401EE084E08C62
:1019A0004B464FF00002CDF800800028EAD14FF0FE
:1019B0004001204600F066FD40B184F841700320EC
:1019C000C3E735F8020BC0F30800E3E784F8417081
:1019D0000020BAE77047FEE7802202490248FFF77D
:1019E00080BD000010100020CC0000200EB50024A7
:1019F0007B4F7C4E4FF0FF3B40F6AC584FF0010A56
:101A00002546594602A800F003FE0028F9D19DF8AA
:101A100008000DF804009DF80000802871D00EDC4D
:101A200004281FD006DC00281BD001286BD0022818
:101A300017D111E0112879D01328F9D1C9E0C028B5
:101A400075D004DC812873D08228F1D1B5E0C1289B
:101A50006FD0C228ECD1A2E06422042162A000F081
:101A6000FBFDB9E06421012000F078FD60A0814613
:101A70006424FEF7A9FB01462246484600F0ECFD2F
:101A80006421002000F06AFD6421202000F066FD42
:101A90006421082000F072FD6421212000F05EFD29
:101AA0006421706A00F06AFD6421222000F056FD76
:101AB0006421002000F062FD6421232000F04EFD2F
:101AC0006421384600F05AFD6421402000F046FDB4
:101AD0006421082000F042FD6421412000F03EFD19
:101AE0006421022000F03AFD6421082000F036FD58
:101AF0006421012000F032FD6421002000F02EFD61
:101B00006AE017E0FFE700F04BFDDFF8F0900024FB
:101B10003B48FFF732FD2128FAD019F80400642170
:101B200000F01CFD641C4445F2DB55E04DE026E06E
:101B300010E02CE0641CE4B2052CFFF462AFDDF889
:101B400001003049401CB1FBF0F0B84200D93846E2
:101B5000F06041E0641CE4B2052CEED3BDF8030054
:101B6000BDF801204FF480618000884200D908460A
:101B7000706190003061B8422ED937612CE0641C4E
:101B8000E4B2052CD9D3DDF80100B06124E0641C77
:101B9000E4B2052CD1D3DDF80100F0611CE0641C37
:101BA000E4B2052CC9D39DF80410C1F38000C1F341
:101BB000C00100B1002171700EE0641CE4B2052C7C
:101BC000BBD3DDF80100B06206E0B56086F800A086
:101BD00002E0C6F808A0357000240095019510E7D2
:101BE00040420F001000002031414C530000000023
:101BF0004C415F595551495249000000E401002011
:101C0000CC00002000A24A040D4808B5416941F00B
:101C1000010141614069002200F00100009011467D
:101C20000E20FEF7CBFE0E20FEF7BAFE0022114674
:101C30000F20FEF7C3FEBDE808400F20FEF7B0BE40
:101C4000001002402DE9F04385B000242C48009498
:101C5000019402940394816941F0100181618169CA
:101C600001F010010491816941F0200181618169D5
:101C700001F020010491816941F0040181618169D1
:101C800001F004010491816941F0080181618069DA
:101C9000DFF8708000F008004FF400550490002237
:101CA00029464046FEF7ECFDDFF85C906F100022FD
:101CB00039464846FEF7E4FD0095022601250396C5
:101CC000CDE9015469464046FEF7EAFC0B208DE859
:101CD000310069464846FEF7E3FC4FF47F408DE84B
:101CE000310069460948FEF7DBFC00970396CDE911
:101CF000015469464846FEF7D3FC05B0BDE8F083C1
:101D0000001002400010014000080140000C01409A
:101D100010B586B0002417480094019402940394EF
:101D200004944FF080410594016040F26711C0E9CE
:101D3000011440F2CF71C0E903148461FFF732F956
:101D400008B1FEF719FB4FF480500090694609482E
:101D5000FFF7AAF908B1FEF70FFB049404A90548A0
:101D60000594FFF7EBF8002801D0FEF705FB06B05D
:101D700010BD00003C00002010B58EB00024079478
:101D8000089409940A940B941C2168460C94FEF75D
:101D90005CFA1F481D4901604721C0E9011440F267
:101DA000E731C0E903148461FFF7FCF808B1FEF7DE
:101DB000E3FA4FF48050079007A91548FFF774F92C
:101DC00008B1FEF7D9FA1248FFF703FB08B1FEF796
:101DD000D3FA0B940BA90E480C94FFF7AFF808B197
:101DE000FEF7CAFA602000904FF4FA70CDE90104C2
:101DF0000822694606480494FFF785FA08B1FEF701
:101E0000BBFA0348FFF758FA0EB010BD00040040BB
:101E1000840000200C4810B50A4901604FF4E131FC
:101E20004160002181600C22C160C0E9041281611F
:101E3000C161FFF7DDFC002803D0BDE81040FEF7CC
:101E40009BBA10BD00380140CC000020FEE7FEE741
:101E500070477047704730B58FB028216846FEF74D
:101E6000F4F914210AA8FEF7F0F901210804CDE9DC
:101E700000100024029402250491CDE907504FF48C
:101E8000E01009906846FEF7C7FE08B172B6FEE79B
:101E90000F20CDE90A054FF48060CDE90C40022106
:101EA0000AA80E94FEF7BCFD002801D072B6FEE72A
:101EB0000FB030BD704700000148FFF764B9000063
:101EC000840000200148FFF75EB900009C0100205B
:101ED000F0B50268194B1A4C1A4D4FF080479842E2
:101EE00005D0B84203D0A04201D0A84203D122F0CD
:101EF00070064A683243984205D0B84203D0A042E7
:101F000001D0A84203D122F44074CA6822434C692C
:101F100022F08002224302608A68C2620A688262FA
:101F2000984201D109690163012141610169C90731
:101F300003D0016921F001010161F0BD002C0140D5
:101F4000000400400008004010B501F01F0301210B
:101F5000046A99408C430462016A9A401143016209
:101F600010BD10B5846842EA032224F47F440A437A
:101F70002243826010BD826822F070020A4342F060
:101F8000070181607047000030B5036A026A22F0E1
:101F9000010202624268846924F073050C682C43D4
:101FA00023F002058B682B430A4DA8420BD123F086
:101FB0000805CB6822F440722B434D6923F00403DB
:101FC00015438A692A434260846149684163036218
:101FD00030BD0000002C014030B5026A036A23F0D6
:101FE00010030362436884690D6824F4E64444EAFC
:101FF00005248D6822F0200242EA05120B4DA8420A
:102000000ED1CD6822F0800242EA05124D6923F418
:10201000406343EA85038D6922F0400243EA850369
:102020004360846149688163026230BD002C0140D5
:1020300030B5036A026A22F4807202624268C4699F
:1020400023F4007324F073050C682C438D6843EA75
:1020500005230C4DA8420ED1CD6823F4006343EA5A
:1020600005234D6922F4405242EA05128D6923F49A
:10207000806342EA05124260C4614968C163036239
:1020800030BD0000002C014030B5046A026A22F421
:10209000805202624268C3690D6823F4E64343EA52
:1020A00005238D6824F4005444EA0534064DA84203
:1020B00004D14D6922F4804242EA85124260C36134
:1020C00049680164046230BD002C014010B5036A08
:1020D000046A24F001040462846924F0F00444EAF0
:1020E000021423F00A020A438461026210BD10B593
:1020F000036A046A24F010040462846923F0A003D4
:1021000024F4704444EA023243EA0111826101621C
:1021100010BD10B5406A0021C185C184FFF72CFABB
:1021200010BD70B5446A2068406994F84110C0F34E
:10213000C0100025212904D118B1E584204600F003
:102140008EF82068406994F84210C0F3801022296C
:1021500004D118B1E585204600F05AF8606C40F0D3
:10216000100060642046FFF707FA70BD10B5014605
:10217000406A096809684FF0000289062ED4C285BA
:1021800001680C3151E8003F23F4807341E80034CA
:10219000002CF5D10168143151E8003F23F0010310
:1021A00041E80034002CF5D10168143151E8003FBA
:1021B00023F0400341E80034002CF5D1202180F8C1
:1021C0004210016B012909D101680C3151E8003F2F
:1021D00023F0100341E80034002CF5D14263016B79
:1021E000012902D0FFF7A4FB10BD818DFFF79EF9F6
:1021F00010BD10B5406A01214163016B012902D075
:10220000FFF797FB10BD818D4908FFF78FF910BDCF
:1022100001680C3151E8002F22F4907241E800234C
:10222000002BF5D10168143151E8002F22F0010292
:1022300041E80023002BF5D1016B012909D1016888
:102240000C3151E8002F22F0100241E80023002B4E
:10225000F5D1202180F84210002101637047016808
:102260000C3151E8002F22F0C00241E80023002B7E
:10227000F5D1202180F84110704708B590F8421040
:10228000222901D0022008BD82684FF480539A426F
:1022900001D1016921B1816A9A421BD04AB10AE099
:1022A0000268816A5268C2F308020A80816A891C46
:1022B00008E0026972B10268526802F07F020A7097
:1022C000816A491C8162C18D491E0904090CC185BE
:1022D00003D01BE002685268F1E70168CA6822F087
:1022E0002002CA600168CA6822F48072CA6001686C
:1022F0004A6922F001024A61202180F8421000213F
:102300004163026B012A03D0FFF712FB002008BDD6
:10231000016301680C3151E8002F22F0100241E8FE
:102320000023002BF5D101680A68D20602D50A689D
:1023300049680091818DFFF7F9F8E7E770B5044629
:1023400000680169E26821F440511143016121698B
:10235000A0680843616908432168CA6841F20C63B8
:102360009A430243CA6020684169A26921F440711E
:10237000114341611E492068884202D1FEF716FCD4
:1023800001E0FEF703FC00EBC00101EB0012606806
:1023900064218000B2FBF0F3B3FBF1F36FF0180699
:1023A0007343B2FBF0F5B2FBF0F605EB8305322385
:1023B00003EB0515B5FBF1F5B6FBF1F605F0F005FD
:1023C00005EB0615B2FBF0F6B2FBF0F0B0FBF1F056
:1023D0006FF01802504306EB800003EB0010B0FBD7
:1023E000F1F0216800F00F002844886070BD000003
:1023F0000038014038B581620446828500201346CA
:102400006064222284F84220E56B1B4AAA62E56BD5
:102410001A4AEA62E56B1A4A2A63E26B50630A467B
:102420002168E06B091DFEF7F1F82068016840683B
:102430000090206948B120680C3050E8001F41F43A
:10244000807140E80012002AF5D12068143050E86D
:10245000001F41F0010140E80012002AF5D1206878
:10246000143050E8001F41F0400140E80012002AFB
:10247000F5D1002038BD00006D210008F3210008CF
:10248000232100082DE9F843984617460D460446D7
:10249000089E24E0701C22D0FEF7F8F9A0EB08009B
:1024A000B0421AD8CEB12068C168490717D5802D2F
:1024B00015D0402D13D00168C94309070FD4016816
:1024C0000025406800902046FFF7A2FE08206064C7
:1024D00084F840500120BDE8F8830320FBE7206822
:1024E000006835EA000004D00020B842D2D00020B5
:1024F000F1E70120F9E700000148FFF743B80000C9
:10250000CC000020FEE70907090E002804DB00F1DB
:10251000E02080F80014704700F00F0000F1E02088
:1025200080F8141D70470000FEF7BEF9FFF793FC1A
:10253000FFF788FBFFF768FBFFF76CFCFFF7E8FB92
:10254000FFF71AFCFFF748FA08210348FEF770FF6F
:10255000FFF74CFAF8E700008400002013B50C46A2
:102560000548FFF70AF82128FAD0224601216846DB
:1025700000F072F81CBD0000CC00002008B5020E6F
:102580008DF80020020C8DF80120020A8DF802203F
:102590008DF803000A460421684600F05DF808BD86
:1025A00070B5194C174E002040F6AC55A060206263
:1025B000FDF7D2FE29461548FDF725FE607838B1B3
:1025C000A06928B142F210710220401C8842FCDB55
:1025D00030880E4B000A0EE03188090A884203D089
:1025E0009954521C0846226200BF00BF022100BF5E
:1025F000491C1E29FBDB226AAA42EDDBBDE87040C4
:10260000FDF7B2BE080C014010000020E4010020DC
:1026100070B50D4606460E4C03E00120FEF72EF87D
:102620006D1E6088A188884201D1002DF5DC80B242
:1026300089B2884202D14FF0FF3070BD0548405C3E
:102640003070491C01F07F00A080002070BD0000A8
:1026500010000020900F002089B213460A4610B5E2
:1026600001460448FFF766F9002801D04FF0FF301B
:1026700010BD0000CC000020010202030405060783
:1026800008090A0B0C0D0E0F1010000000000000CE
:10269000000001020304060708090000000001020F
:1026A00003040000C4260008000000203C000000D5
:1026B00028010008002700083C000020B416000094
:1026C00044010008010000001000000000000000AC
:1026D00000127A000000000000000000000000006E
:1026E00000000000000000000000000000000000EA
:1026F0000000000000000000AC0D00000000000021
:04000005080000ED02
:00000001FF
