:020000040800F2
:10000000100E00208901000817340008572200084C
:1000100015340008FF030008CD3D00080000000073
:10002000000000000000000000000000273700086A
:100030009F04000800000000253700082937000849
:10004000A3010008A3010008A3010008A301000800
:10005000A3010008A3010008A3010008A3010008F0
:10006000A3010008A3010008A3010008A3010008E0
:10007000A3010008A30100085D040008690400084A
:10008000A3010008A3010008A3010008A3010008C0
:10009000A3010008A3010008A3010008A3010008B0
:1000A000A3010008A3010008A3010008A3010008A0
:1000B000A3010008A30100088D370008652200088D
:1000C00059220008A3010008A3010008A3010008A9
:1000D000A3010008C13D0008A3010008A301000816
:1000E000A3010008A3010008A301000800F002F822
:1000F00000F03AF80AA090E8000C82448344AAF188
:100100000107DA4501D100F02FF8AFF2090EBAE885
:100110000F0013F0010F18BFFB1A43F0010318473B
:100120002842000048420000103A24BF78C878C135
:10013000FAD8520724BF30C830C144BF04680C60ED
:10014000704700000023002400250026103A28BF35
:1001500078C1FBD8520728BF30C148BF0B60704739
:100160001FB51FBD10B510BD00F010F91146FFF707
:10017000F7FF03F03DFE00F02EF903B4FFF7F2FFA6
:1001800003BC00F035F900000948804709480047E2
:10019000FEE7FEE7FEE7FEE7FEE7FEE7FEE7FEE737
:1001A000FEE7FEE704480549054A064B7047000094
:1001B00089370008ED00000810080020100E00200C
:1001C000100A0020100A002010B5431C02E010F8AD
:1001D000011B71B18107FAD14FF0013202C88C1AAC
:1001E0008C4314EAC211F9D0C01A0A0603D0C01E0B
:1001F00010BDC01A10BD0A0401D0801E10BD090236
:10020000FCD0401E10BD032A40F2308010F0030CD9
:1002100000F0158011F8013BBCF1020F624498BF59
:1002200011F801CB00F8013B38BF11F8013BA2F1F6
:10023000040298BF00F801CB38BF00F8013B11F071
:10024000030300F07180083AC0F0088051F8043BC5
:10025000083A51F804CBA0E80810F5E7121D5CBF7E
:1002600051F8043B40F8043BAFF30080D20724BFB1
:1002700011F8013B11F801CB48BF11F8012B24BF45
:1002800000F8013B00F801CB48BF00F8012B704794
:100290004FF000020429C0F0128010F0030C00F0AF
:1002A0001B80CCF1040CBCF1020F18BF00F8012B2D
:1002B000A8BF20F8022BA1EB0C0100F00DB85FEAFB
:1002C000C17C24BF00F8012B00F8012B48BF00F8C7
:1002D000012B70474FF0000200B513469446964636
:1002E000203922BFA0E80C50A0E80C50B1F1200149
:1002F000BFF4F7AF090728BFA0E80C5048BF0CC0F7
:100300005DF804EB890028BF40F8042B08BF704754
:1003100048BF20F8022B11F0804F18BF00F8012BC6
:10032000704770477047704710B5203AC0F00B8097
:10033000B1E81850203AA0E81850B1E81850A0E8E9
:100340001850BFF4F5AF5FEA027C24BFB1E8185043
:10035000A0E8185044BF18C918C0BDE810405FEAB3
:10036000827C24BF51F8043B40F8043B08BF70472F
:10037000D20728BF31F8023B48BF11F8012B28BF34
:1003800020F8023B48BF00F8012B7047754600F08B
:100390002BF8AE4605006946534620F00700854617
:1003A00018B020B5FFF7FEFEBDE820404FF0000674
:1003B0004FF000074FF000084FF0000B21F007014D
:1003C000AC46ACE8C009ACE8C009ACE8C009ACE890
:1003D000C0098D46704710B50446AFF30080204633
:1003E000BDE81040FFF7C9BE00487047AC070020C9
:1003F00001491820ABBEFEE7260002007047FEE769
:10040000C0E902120021416001607047D0E900326A
:100410009A420CD0C3689A5C0A704168491C4160DA
:100420008268914201D100214160002070474FF065
:10043000FF30704710B5026884681346521C94421E
:1004400000D100224468944204D0C468E1540260A0
:10045000002010BD4FF0FF3010BD0000014800F03B
:1004600095B80000BC010020014800F08FB80000E2
:100470007801002030B590F840500124AC40C56BA5
:100480006C60046863604368102B036803D0996054
:100490000068C26030BD9A600068C16030BD7047BE
:1004A00072B6FEE710B590F821100022022905D09F
:1004B0000421816380F82020012010BD01680B68B1
:1004C00023F00E030B6001680B6823F001030B603F
:1004D00090F84030C46B012101FA03F3636080F8A7
:1004E000211080F82020104610BD000010B590F8B3
:1004F00021100024022903D00421816301243DE05E
:1005000001680A6822F00E020A6001680A6822F097
:1005100001020A601A4A0168914201D1012121E0D9
:10052000174A1432914201D110211BE0144A28329B
:10053000914201D1891515E0114A3C32914201D115
:1005400089140FE00E4A5032914202D14FF48031AB
:1005500008E00B4A6432914202D14FF4801101E06D
:100560004FF08071064A083A5160012180F821104D
:10057000002180F82010416B01B18847204610BD52
:100580000800024090F82100704700002DE9F05F5C
:10059000C16B0C6801680B68D0F840C0042202FAF5
:1005A0000CF2494DDFF824A1494E4A4FDFF828B13B
:1005B000DFF828E122422CD05A072AD50A68920691
:1005C00003D40A6822F004020A600168A94201D13A
:1005D000042219E0514501D1402215E0B14202D177
:1005E0004FF4806210E0B94202D14FF480420BE038
:1005F000594502D14FF4802206E0714502D14FF4F3
:10060000800201E04FF080622F4908394A60C16AD8
:100610003BE04FF0020808FA0CF818EA040F4FF01C
:1006200000094FF0010235D05FEA837832D50B68BC
:100630009B0605D40B6823F00A030B6080F8212089
:100640000168A94201D1022219E0514501D12022BD
:1006500015E0B14202D14FF4007210E0B94202D16C
:100660004FF400520BE0594502D14FF4003206E03E
:10067000714502D14FF4001201E04FF000721249AF
:1006800008394A6080F82090816A00291AD0BDE8B4
:10069000F05F0847082505FA0CF5254212D01B0724
:1006A00010D50B6823F00E030B6090F84010C36B5D
:1006B00002FA01F15960826380F8212080F82090CD
:1006C000016BE2E7BDE8F09F080002401C00024019
:1006D0003000024044000240580002406C000240DA
:1006E00030B528B308C8134914221944B1FBF2F1FC
:1006F0008900C16310498163022141771A6843F67A
:10070000F0718A43D0E900142143D0E902452C431B
:1007100021430469214344692143846921431143EE
:10072000196000214163012242770177084630BDFC
:10073000012030BDF8FFFDBF0000024070B5044647
:1007400090F82000002501280CD0012084F820001A
:1007500094F821600020012E06D084F820000225A4
:10076000284670BD022070BD022684F82160A06377
:100770002068066826F0010606602046FFF77AFE2C
:10078000E06A00282068016802D041F00E0106E00E
:1007900021F0040101602068016841F00A01016054
:1007A0002068016841F001010160D9E770B5044695
:1007B00000F004F90546601C02D0044800780444A7
:1007C00000F0FCF8401BA042FAD370BD00000020EE
:1007D0002DE9F84FDFF8B8910024A9F1040B234666
:1007E0000F2709F1040AABF1040EC9E00125A54069
:1007F0002A40AA427DD1674ED1F804C0ACEB06086E
:10080000B44532D014DCBCF1030F3AD009DCBCF1A2
:10081000000F2AD0BCF1010F1CD0BCF1020F31D166
:100820001DE0BCF1110F17D0BCF1120F2AD119E055
:10083000B8F5881F19D006DCB8F5803F15D0B8F59B
:10084000801F1FD111E0B8F5001F0ED0B8F5041FAE
:1008500018D10AE0CB6815E0CB681B1D12E0CB680D
:1008600008330FE0CB680C330CE08B682BB1012B05
:100870004FF0080303D0456104E0042302E0056162
:1008800000E00023FF2A01D8064601E000F104063B
:100890004FEA840501D9A5F12005D6F8008007FAB2
:1008A00005FC28EA0C0803FA05F548EA0508C6F82D
:1008B00000804D68ED0062D5374DAE6946F0010607
:1008C000AE61AD6924F0030605F001050095334DD6
:1008D00006EB050CDCF80850A607360F07FA06F8F9
:1008E00025EA0805DFF8B880404503D14FF000083D
:1008F00017E044E0DFF8AC80404502D14FF001083A
:100900000FE0DFF8A480404502D14FF0020808E074
:10091000DFF89880404502D14FF0030801E04FF026
:10092000040808FA06F848EA0508CCF808804D687B
:10093000D9F80060ED024D4601D5164300E096431C
:100940002E604D68DAF80060AD02554601D51643B9
:1009500000E096432E604D68DBF80060AD035D4615
:1009600001D5164300E096432E604D68DEF8006026
:10097000ED03754601D5164300E096432E60641CD6
:100980000D682A46E5407FF431AFBDE8F88F0000DE
:100990000804014000001110001002400000014056
:1009A00000080140000C014000100140001401400B
:1009B0000AB1016170470904FBE700000148806843
:1009C0007047000000000020704770472DE9F0419B
:1009D000016804464A694E6890F83E000025D743F6
:1009E000FA050BD4F243D20508D46FF480720125C6
:1009F0004A6121680A6842F400420A60B90508D4D5
:100A0000F143C90505D422686FF4007145F0020571
:100A10005161790525D4F143C90522D4638D94F839
:100A20003D10226B202808D13BB9212910D029295B
:100A30000ED0282901D1212A0AD022686FF48061C2
:100A4000516145F00405102806D0402804D008E084
:100A5000204602F073F804E02068016841F4007158
:100A60000160380508D4F043C00505D421686FF44F
:100A7000006045F008054861002D07D0206C284330
:100A800020642046BDE8F04101F058BCBDE8F0818B
:100A90002DE9F047026800215368C66A90F83E408D
:100AA00090F83D50102C12D0402C10D0046C002C2B
:100AB0007DD05469E443A6077AD4DE43B60577D4E3
:100AC000036C03B19169BDE8F04702F013B8976970
:100AD00051694FF42A0CC9435FEAC1784FF02A49A3
:100AE00004D066452AD04E4528D010E0DE43B60536
:100AF0000DD4C16A614501D1012103E0C16A4945B4
:100B000001D10821C162BDE8F04701F059BF0E07CD
:100B100016D4DE43B60513D4416CC9B21161416BE2
:100B200009B1896A29B9816B002907D0896A00292E
:100B300004D00068416841F400614160BDE8F0877D
:100B40008E0706D4DE43B60503D4BDE8F04701F0B6
:100B50008BBEFE43526876074FEA02521DD4002A2C
:100B6000ECDB0A0608D4DA43520505D4490705D55B
:100B7000BDE8F04701F01CBE4907DFD4D943890521
:100B8000DCD4212D05D0402CD8D1BDE8F04701F0B0
:100B90005DBFBDE8F04701F0C9BD002ACEDB4A06C3
:100BA0000BD4DA43520508D4490708D501E00DE01B
:100BB0000EE0BDE8F04701F0F1BC4907BED4D943CF
:100BC0008905BBD4BDE8F04701F07BBC916970E7B3
:100BD000E10606D4D943890503D4BDE8F04701F006
:100BE000F5BF2821212D27D0292D25D0650655D4E4
:100BF000DD436D0552D4640752D590F83D30448DE5
:100C0000002C9BD01269446A2270426A521C4262D4
:100C1000428D521E4285428D002A8FD12A2B8DD1C2
:100C20000268536823F4806353602222026380F8D1
:100C30003D1000F0E5F981E7250623D4DD436D057D
:100C400020D4640720D590F83D30448D002CF2D09C
:100C5000446A24781461426A521C4262428D521ED8
:100C60004285428D002AE6D1292BE4D102685368DF
:100C700023F4806353602122026380F83D1000F06A
:100C8000C0F95BE76107D6D4D9438905D3D4418D38
:100C90000029D0D0416A097811610AE06107CAD4FD
:100CA000D9438905C7D4418D0029C4D01169426A4E
:100CB0001170416A491C4162418D491E41853DE7E1
:100CC0007047000070B5040025D094F83D00002561
:100CD00020B984F83C50204600F054F9242084F8D0
:100CE0003D002068016821F0010101602068016871
:100CF00041F4004101602068016821F40041016075
:100D000000F0FAFA4D4A6168914201D84C4900E07E
:100D10004C49884201D2012070BD4B492368B0FB89
:100D2000F1F15E6826F03F060E435E606368934211
:100D300006D94FF4967359434FF47A73B1FBF3F12C
:100D40002368491C1E6A26F03F0631431962616818
:100D5000914210D84900401EB0FBF1F2521CC2F380
:100D60000B02042A01D2042022E0B0FBF1F0401C67
:100D7000C0F30B001CE0A268F2B301EBC10303EB6C
:100D80000116431EB3FBF6F35B1C43F480431B05C3
:100D900049D092B301EBC10202EB0111401EB0FB3E
:100DA000F1F0401CC0F30B0040F4804040F40040E0
:100DB0002168CA694CF6FF739A431043C861D4E9AD
:100DC000071001432068026822F0C002114301604D
:100DD000D4E9030101432068826848F2FF339A4353
:100DE00011438160D4E9050108432168CA6822F0F3
:100DF000FF021043C86001E00EE016E020680168C1
:100E000041F0010101602564202084F83D00256344
:100E100084F83E50002070BD01EB4106431EB3FB39
:100E2000F6F35B1CB3E70120C2E701EB4101401E72
:100E3000B0FBF1F0401CC0F30B00B7E7A086010047
:100E400080841E0000093D0040420F00704770473B
:100E5000704700002DE9F84F1F4690468A46044629
:100E6000DDF82890FFF7AAFD054694F83D002028FC
:100E70007FD11923012240492046009501F080FFCF
:100E8000002876D194F83C00012872D0012084F823
:100E90003C0020680168C90703D1016841F00101E5
:100EA00001602068016821F400610160212084F85C
:100EB0003D00102084F83E0000262664C4F82480FB
:100EC0006785608D20852D48E0622B464A46514655
:100ED000204601F0DDFB90B92068416980690090EF
:100EE00036E02A464946204601F0F0FF50B1206C1A
:100EF000042804D12068016841F4007101600120D8
:100F0000BDE8F88F606A216800780861606A401C5B
:100F10006062618D491E6185218D491E89B22185DE
:100F200022685369DB435B070BD451B10078106131
:100F3000606A401C6062608D401E6085208D401E8E
:100F400020852A464946204601F0EEFE0028CED1F3
:100F5000208D0028C5D154F83D0B016841F4007183
:100F60000160202004F81E09E67766770020C7E7B5
:100F7000FFE70220C4E70000020010000000FFFFAE
:100F80007047704710B586B0002100910191029121
:100F900003910068174988422AD1174CA06940F094
:100FA0000800A061A069694600F008000490C02014
:100FB000009012200190032003901048FFF708FCD6
:100FC000E06940F40010E061E069002200F40010E4
:100FD000049011461F2000F0A7F81F2000F096F89B
:100FE00000221146202000F09FF8202000F08EF80B
:100FF00006B010BD0054004000100240000C01403B
:1010000070477047024881680278114481607047D8
:1010100000000020074810B5016841F01001016090
:10102000032000F0A1F80F2000F006F800F050F8BF
:10103000002010BD0020024030B505461F4887B093
:10104000C16941F00401C161C06906A900F0040052
:10105000009001A800F030F90498B0B100F04CF90C
:1010600040001749174AB0FBF1F11748491E0260CA
:10107000416040F2E7320021C0E9032181608161D3
:1010800000F0D8FB040003D015E000F035F9E8E7E4
:101090000D4800F00FFC04000DD11E2000F036F8C2
:1010A000102D07D2002229461E2000F03DF80748E7
:1010B000056000E0012407B0204630BD001002406A
:1010C00040420F0000080040000200200400002001
:1010D0000C4808B5816941F001018161816901F025
:1010E00001010091C16941F08051C161C06900F006
:1010F000805000900448416821F0E06141F00071A7
:10110000416008BD0010024000000140002809DBDA
:1011100000F01F02012191404009800000F1E02011
:10112000C0F8001170470000F0B40E4B1B680C466D
:10113000C3F30223C3F10705042D00D90425191DAB
:10114000072901D2002300E0DB1E012606FA05F183
:10115000491E214099409E40761E16403143F0BC06
:1011600002F035BE0CED00E0064900F00702086809
:101170004FF6FF03184040EA0220034A104308607C
:10118000704700000CED00E00000FA052DE9F04783
:101190000F46050061D0434E306800F00700B842AA
:1011A00009D2306820F0070038433060306800F022
:1011B0000700B84251D128683B4C810712D540073F
:1011C00003D5606840F4E06060602878000703D5CC
:1011D000606840F4605060606068A96820F0F000CA
:1011E000084360602878C00728D06868012810D0BC
:1011F0002168022810D0890700292EDA616821F0C1
:10120000030101436160FFF7D9FB804641F2883951
:101210000DE021688903EFE78901EDE7FFF7CEFBD9
:10122000A0EB0801494502D90320BDE8F0876068BA
:10123000696800F00C00B0EB810FEFD1306800F06E
:101240000700B8420BD9306820F0070038433060FF
:10125000306800F00700B84201D00120E5E72878A7
:10126000400705D56068E96820F4E06008436060E5
:101270002878000706D56068296920F4605040EAA4
:10128000C100606000F058F86168084AC1F30311BA
:10129000515CC8400649086006480068FFF7CCFE6C
:1012A0000020C2E70020024000100240B23E0008C9
:1012B0000C000020040000200F2202600C4A53683A
:1012C00003F003034360536803F0F0038360536843
:1012D00003F4E063C36052684FF4E06303EAD202B0
:1012E00002610448006800F00700086070470000D1
:1012F0000010024000200240044805490068496887
:10130000044AC1F30221515CC84070470C00002020
:1013100000100240C23E00080448054900684968C0
:10132000044AC1F3C221515CC84070470C00002040
:1013300000100240C23E00080E4A51680E4801F0FB
:101340000C03042B11D0082B0FD10C48C1F383439D
:10135000C903C05C0AD55168084AC1F34041921ED6
:10136000515C054A5043B0FBF1F0704704494843D3
:10137000704700000010024000127A00A23E0008F0
:1013800000093D002DE9F84F040070D02078C04DD1
:10139000C00749D06868C0F38100012807D0686899
:1013A000C0F38100022809D16868C00306D5286807
:1013B000800339D560680028E7D035E06068B0F573
:1013C000803F0BD010B1B0F5A02F11D0286820F4C9
:1013D00080302860286820F4802002E0286840F4EB
:1013E00080302860606890B1FFF7E8FA06460AE0AE
:1013F000286840F480202860F0E700BFFFF7DEFA9D
:10140000801B642873D828688003F7D50CE0FFF7A9
:10141000D5FA064605E000BFFFF7D0FA801B642826
:10142000F0D828688003F7D420789A4E80074FF0D0
:1014300001094FF0000839D5686810F00C0F07D08B
:101440006868C0F38100022809D16868C00306D427
:101450002868800714D52069012808D110E0206988
:10146000B0B1C6F80090FFF7A9FA074605E00AE117
:10147000FFF7A4FAC01B0228C4D828688007F7D554
:101480002868616920F0F80040EAC10028600DE09A
:10149000C6F80080FFF792FA074604E0FFF78EFADD
:1014A000C01B022823D828688007F7D420780007BB
:1014B0002CD57948A169D9B1C0F80090FFF77EFA20
:1014C000074604E0FFF77AFAC01B02280FD8686AC3
:1014D0008007F7D571484FF4FA510068B0FBF1F07E
:1014E000009000BF0098411E0091FAD20EE080E00B
:1014F000C0F80080FFF762FA074604E0FFF75EFAE3
:10150000C01B022875D8686A8007F7D42078400786
:1015100060D5E8690027C00008D4E86940F0805031
:10152000E861E869012700F0805000905C4801689C
:10153000C90513D40168834641F480710160FFF747
:101540003DFA824606E000BFFFF738FAA0EB0A003A
:1015500064284ED8DBF80000C005F5D5E068012806
:101560000AD008B1052813D0286A20F001002862AB
:10157000286A20F0040002E0286A40F00100286296
:10158000E06841F2883B98B1FFF718FA82460BE019
:10159000286A40F004002862EEE700BFFFF70EFA69
:1015A000A0EB0A0159455AD8286A8007F6D50CE005
:1015B000FFF704FA824605E0FFF700FAA0EB0A0104
:1015C00059454CD8286A8007F6D41FB1E86920F045
:1015D0008050E861E06988B36968C1F3810102293C
:1015E00044D00228C6F8608004D0FFF7E7F904462B
:1015F00038E034E0FFF7E2F9074604E0FFF7DEF9F0
:10160000C01B02282BD828688001F7D4206AB0F5C7
:10161000803F05D16868A16820F400300843686005
:10162000D4E908010843696821F47411084368602B
:10163000C6F86090FFF7C2F9044606E025E000BF57
:10164000FFF7BCF9001B022809D828688001F7D5EC
:101650001BE000BFFFF7B2F9001B022802D90320EC
:10166000BDE8F88F28688001F4D40EE00128F7D097
:101670006868226A00F48031914204D1616A00F402
:101680007010884201D00120EAE70020E8E700005E
:101690000010024000004242800442420C00002040
:1016A0000070004070B5040009D0606A002540B1A8
:1016B00025616561A56294F8510040B10CE00120FC
:1016C00070BD6068B0F5827FF4D0E561F2E784F820
:1016D0005050204600F040F8022084F85100206865
:1016E000016821F040010160A088218900F4827026
:1016F00001F404410843A18901F400610843217CFD
:1017000001F002010843217D01F001010843218B12
:1017100001F400710843217F01F03801084394F877
:10172000201001F080010843218D01F4005108438D
:1017300021680860A069042101EA1040216848601E
:101740002068C16921F40061C1616565012084F8E8
:101750005100002070BD000030B585B00024009419
:1017600001940294039400681449884223D11448D8
:10177000816941F480518161816901F48051049152
:10178000816941F00401816180690E4D00F004001F
:101790000490A0200090022001900320039069464D
:1017A0002846FFF715F84020CDE900046946284691
:1017B0000294FFF70DF805B030BD00000030014085
:1017C00000100240000801407047704770B590F863
:1017D0003C20012A26D0012480F83C40022280F8D7
:1017E0003D2003685A689D6822F070060A683243FB
:1017F0005A600D4B02689A4208D0B2F1804F05D072
:101800000A4B9A4202D00A4B9A4204D1496825F009
:1018100080031943916080F83D40002180F83C101E
:10182000084670BD022070BD002C0140000400403D
:101830000008004010B5040003D094F83D0010B13A
:1018400007E0012010BD002084F83C00204600F095
:101850001FF8022084F83D00211D206801F09CFF44
:10186000012084F8460084F83E0084F83F0084F8A4
:10187000400084F8410084F8420084F8430084F872
:10188000440084F8450084F83D00002010BD0000AD
:1018900008B50068B0F1804F08D10548C16941F032
:1018A0000101C161C06900F00100009008BD0000A5
:1018B0000010024090F83D10012901D0012070472E
:1018C000022180F83D100168CA6842F00102CA6036
:1018D00000680B49884208D0B0F1804F05D0094913
:1018E000884202D00849884204D1816801F007018A
:1018F000062903D0016841F0010101600020704712
:10190000002C0140000400400008004070B504466F
:1019100090F83C000025012817D0012684F83C608F
:10192000022084F83D002068826822F0770222F4C9
:101930007F4282600868502838D00DDC20284FD0C4
:1019400005DC90B3102811D14AE0022070BD302888
:1019500046D040280AD13BE060282FD070280DD017
:10196000B0F5805F03D0B0F5005F12D0012584F898
:101970003D60002084F83C00284670BDCB68D1E96A
:101980000121206801F051FF2068816841F0770152
:1019900009E0CB68D1E90121206801F046FF206809
:1019A000816841F480418160E1E719E0CA684968D3
:1019B000206801F0EFFF5021206806E0CA684968FE
:1019C000206801F0F8FF6021206801F038FFCEE7C1
:1019D000CA684968206801F0DDFF40212068F4E70B
:1019E000226801461046F0E770472DE9F0410446B1
:1019F0000068C66805694FF00007A90713D5B1074D
:101A000011D5F91E016101202077206880698007C7
:101A1000204602D0FFF7E8FF04E000F0C1F82046BE
:101A200000F053F92777680716D5700714D5216899
:101A30006FF004000861022020772068806910F4AC
:101A4000407F204602D0FFF7CFFF04E000F0A8F867
:101A5000204600F03AF92777280715D5300713D527
:101A600021686FF008000861042020772068C069B1
:101A70008007204602D0FFF7B7FF04E000F090F89F
:101A8000204600F022F92777E80616D5F00614D58F
:101A900021686FF010000861082020772068C06975
:101AA00010F4407F204602D0FFF79EFF04E000F0D4
:101AB00077F8204600F009F92777E80708D0F00703
:101AC00006D021686FF001000861204600F04CF953
:101AD000280608D5300606D521686FF08000086119
:101AE0002046FFF771FE680608D5700606D5216806
:101AF0006FF040000861204600F040F9A8060AD5C2
:101B0000B00608D521686FF0200008612046BDE8C6
:101B1000F041FFF75ABEBDE8F081000010B586B075
:101B2000002100910191029103910068B0F1804F72
:101B30002BD11748816941F004018161816901F06D
:101B400004010491816941F00801816180690224E6
:101B500000F00800049048F20400CDE90004694652
:101B60000C480394FEF734FE0820CDE900046946D2
:101B700009480394FEF72CFE0848416821F440719F
:101B800041F0E06141F48071416006B010BD000099
:101B90000010024000080140000C0140000001401C
:101BA000704770B5044690F83C0000260D460128A9
:101BB0000FD0012084F83C006AB1042A1DD0082A05
:101BC0002FD00C2A3FD00126002084F83C0030465C
:101BD00070BD022070BD206801F03AFE2068816966
:101BE00041F0080181612068816921F0040181616F
:101BF000206881692A69114311E0206801F050FED4
:101C00002068816941F4006181612068816921F463
:101C100080618161206881692A6941EA02218161CC
:101C2000D2E7206801F068FE2068C16941F0080130
:101C3000C1612068C16921F00401C1612068C169E6
:101C40002A69114311E0206801F082FE2068C16911
:101C500041F40061C1612068C16921F48061C16102
:101C60002068C1692A6941EA0221C161ACE710B567
:101C7000040003D094F83D0010B107E0012010BD2E
:101C8000002084F83C00204600F01EF8022084F872
:101C90003D00211D206801F07FFD012084F84600F1
:101CA00084F83E0084F83F0084F8400084F8410046
:101CB00084F8420084F8430084F8440084F8450026
:101CC00084F83D00002010BD7047704710B50446F1
:101CD000022249B104290ED0082913D094F84100FA
:101CE000012816D0012010BD94F83E000128F9D13A
:101CF00084F83E200FE094F83F000128F2D184F8E8
:101D00003F2008E094F840000128EBD184F84020FF
:101D100001E084F841200122206801F079FD0F499B
:101D20002068884203D1426C42F400424264206839
:101D3000884208D0B0F1804F05D00949884202D0CE
:101D40000849884204D1816801F00701062903D0BF
:101D5000016841F001010160002010BD002C01402C
:101D6000000400400008004000680349884201D197
:101D7000FFF748B97047000000080040704738B5C9
:101D8000044690F84200202801D0022038BD51B10D
:101D90004AB10120206300206063204601F08EFFDD
:101DA000216B012901D0012038BD21680A684968EA
:101DB000009121680C3151E8002F42F0100241E8F7
:101DC0000023002BF5D138BD70B50A49884210D1E7
:101DD000094D0A4E0024295D3068FEF72BFB641C78
:101DE0000A2CF8DBBDE87040642203490148FFF784
:101DF000C6BF70BD30010020BC02002010000020D2
:101E000070470000F8B5016804460868CA684B6965
:101E100010F00F0F4FF0000559D003F0010602F447
:101E20009077374365D0C10705D0D10503D5616CE4
:101E300041F001016164410705D5D90703D0616C08
:101E400041F002016164810705D5D90703D0616CB7
:101E500041F004016164010707D502F0200131431C
:101E600003D0616C41F008016164616C00293AD0D3
:101E7000800604D5900602D5204601F062FE206857
:101E80004069616CC0F38010090700D460B320463C
:101E900001F022FE20684069400621D520681430F8
:101EA00050E8001F21F0400140E80012002AF5D15F
:101EB000E06BA8B16D494163E06BFEF717FB0028AA
:101EC00011D0E06B416B01B0BDE8F04008478306DC
:101ED0000FD593060DD52046BDE8F84001F031BE80
:101EE0002046FFF78DFFF8BD2046FFF789FF6564A8
:101EF000F8BD266B2023012E7CD1C6067AD5D606E6
:101F000078D508684868009048694FF00206400696
:101F100040D5E16B086840680004000CE8D0A28D51
:101F20008242E5D9E085886920282DD020680C30D0
:101F300050E8001F21F4807140E80012002AF5D11A
:101F40002068143050E8001F21F0010140E8001221
:101F5000002AF5D12068143050E8001F21F040011C
:101F600040E80012002AF5D184F842302563206849
:101F70000C3050E8001F21F0100140E80012002A48
:101F8000F5D1E06BFEF78EFA6663A08DE18D401A05
:101F900081B22AE0A08DE18D401A81B2E08D002847
:101FA000A6D00029A4D022680C3252E8000F20F4F9
:101FB000907042E80007002FF5D12068143050E8F7
:101FC000002F22F0010240E80027002FF5D184F80D
:101FD0004230256320680C3050E8002F22F01002B8
:101FE00040E80023002BF5D166632046FFF7ECFEA6
:101FF000F8BDFFE705062BD5150629D594F8410055
:102000002128F5D1A068B0F5805F01D12069B0B179
:10201000206A411C2162216800784860E08C401EE3
:102020000004000CE084E3D12068C16821F0800145
:10203000C1602068C16841F04001C160D8E7206AF2
:102040000088C0F308004860206A801C2062E5E731
:102050004006CDD55006CBD5CA68204622F04002B6
:10206000CA6084F8413000F0F5F8C1E7DB390008B8
:1020700070B5040004D094F84100002510B106E0CA
:10208000012070BD84F84050204600F023F8242041
:1020900084F841002068C16821F40051C1602046E5
:1020A00001F0B0FD2068016921F4904101612068D0
:1020B000416921F02A0141612068C16841F4005161
:1020C000C1606564202084F8410084F842006563A3
:1020D000002070BDF0B585B0002406460094019440
:1020E0000294039400682D49884254D12C48816998
:1020F00041F480418161816901F4804104918169E9
:1021000041F0040181618069264D00F004000490D3
:102110004FF4007000900220019003200390694664
:102120002846FEF755FB2815CDE9000469462846E8
:102130000294FEF74DFB1D4D1B488027C5E90004A6
:10214000C5E902472C616C61AC612846EC61FEF781
:10215000C7FA08B1FEF7A4F9F5636E62134D124891
:102160004435143801C5102091C5104845F8104970
:1021700044306C61AC61EC61FEF7B2FA08B1FEF775
:102180008FF9B5630022114625206E62FEF7CCFF61
:102190002520FEF7BBFF05B0F0BD00000038014070
:1021A0000010024000080140580002407801002061
:1021B000704770472DE9F843044690F8410098466F
:1021C00016460D46202802D00220BDE8F88385B1CE
:1021D0007EB100206064212084F84100FEF7EEFB10
:1021E000A6848146E684A0682027B0F5805F02D0EF
:1021F00003E00120E9E7206910B12E4600250EE03A
:1022000000260CE08021204601F0A0FDA8B9C6B14F
:1022100016F8010B21684860E08C401EE084E08CD9
:102220004B464FF00002CDF800800028EAD14FF075
:102230004001204601F08AFD40B184F8417003203E
:10224000C3E735F8020BC0F30800E3E784F84170F8
:102250000020BAE77047FEE70148FEF7B7BB000071
:102260003C0000200148FEF713BC00003C000020A9
:1022700038B5406A002190F83D202B4B46F2A81457
:102280001B68B3FBF4F3C3EBC30303EB83030093BB
:102290003BB15B1E009303681B689B0505D5009B43
:1022A000F6E7036C43F020030364436B03B19962C8
:1022B000836B03B1996203681C6824F480641C601A
:1022C0004185436B03B15963836B03B15963036861
:1022D0001C6824F001041C6090F83D402023602C11
:1022E0000BD0282434EA02020FD080F83D3080F869
:1022F0003E1000BFFEF7E4FC38BD80F83D3080F8AA
:102300003E100164FEF760FB38BD0268136843F0BD
:10231000010313600268136843F480631360016370
:1023200080F83D40E6E700000C00002000684169AD
:10233000C943090601D400210161704770B5044604
:1023400090F83D0094F83E10102901D0402906D1A4
:10235000222804D121680A6822F400620A60282138
:1023600031EA00024FF000054FF0200626D0216828
:102370004968090505D4602803D084F83D6084F8D5
:102380003E50256320684168090537D5416821F42E
:1023900000614160606B90F821203C49012A11D016
:1023A0004163606BFEF7A2F838B32068016821F042
:1023B0000101016084F83D60606B1CE0256384F8D6
:1023C0003D10DFE7A06B4163A06BFEF78FF8A0B173
:1023D00020684169C943490605D40069616A0870EB
:1023E000606A401C60622068016821F001010160A0
:1023F00084F83D60A06B416B884710E094F83D1075
:10240000602910D04169C943490605D40069616A51
:102410000870606A401C60622046FEF751FC206C28
:10242000C1071CD115E084F83D6025644169C943AA
:10243000490605D40069616A0870606A401C6062E0
:102440002068016821F0010101602046FEF7BCFA16
:10245000E5E7810703D4410701D4000704D52068CC
:10246000416821F4E061416094F83D00216C490726
:102470000BD5282809D10648E062256384F83D6021
:1024800084F83E502046FEF7E1FC70BD7122000842
:102490000000FFFF01684A69D24352050FD46FF470
:1024A00080624A61002140F8301F2022427381730C
:1024B000026942F0040202610173012070470020AA
:1024C000704710B5C26A438D0168042B06D0438D56
:1024D000032B08D0438D022B1DD012E04A6822F452
:1024E00080624A600CE04B6823F480634B60042AEE
:1024F00006D0022A04D001680A6822F480620A60C9
:1025000001680969426A1170416A491C4162418D42
:10251000491E418510BD012A34D0102A32D0042A28
:1025200034D0022A32D00B6843F400730B60016888
:102530000969436A1970416A491C4162438D5B1EF7
:10254000438503681B690B70416A491C4162418DD8
:10255000491E418501684B6823F440734B6020217C
:1025600080F83D1090F83E300021402B80F83E105E
:1025700010D0082A02D0202A00D012210163FEF7D1
:1025800066FC10BD0B6823F48063CFE70B6843F44F
:102590008063CBE70163FEF7F3FC10BD38B590F81C
:1025A0003D10222910D1C36A418D03290DD901683C
:1025B0000969426A1170416A491C4162418D491E94
:1025C0004185418D032906D038BDC26A022A02D056
:1025D000012906D029B10068416821F48061416079
:1025E00038BD2A4A46F2A81400211268B2FBF4F260
:1025F00002EB8202009202682024009D6D1E00956D
:1026000026D01568AD05F8D4156825F480651560E9
:102610000268556825F4E065556002681269456AEC
:102620002A70426A521C4262428D521E428580F8D4
:102630003D4090F83E2080F83E10402A21D0082BE3
:1026400002D0202B00D012210163FEF700FC38BD20
:10265000036C43F020030364536823F4E063536086
:1026600002681269436A1A70426A521C4262428DC1
:10267000521E428580F83D4080F83E10FEF720FB58
:1026800038BD0163FEF77CFC38BD00000C00002063
:10269000F8B50446C06A1E460D461746082807D0FE
:1026A000012805D010F5803F02D0206B122804D1FC
:1026B0002068016841F480710160134600224FF0E8
:1026C00001112046009600F05BFB40B120680068D5
:1026D000C00502D54FF4007020640320F8BD2069C6
:1026E000B0F5804F0ED00620216800EAD51040F0EA
:1026F000F000086133463A460B49204600F088FB5B
:1027000078B902E005F0FE0000E0E8B22168086157
:10271000054933463A46891F204600F079FB0028D8
:10272000DCD00120F8BD00000800010010B5C26A2D
:1027300090F83D1021290BD1418D51B1416A0268B9
:1027400009781161416A491C4162418D491E4185E8
:1027500010BD20230021082A13D0202A11D012F501
:10276000803F0ED00268546824F4E0645460112263
:10277000026380F83E1080F83D3000BFFEF768FB32
:1027800010BD0268546824F4E06454600268146860
:1027900044F400741460016380F83D3090F83E20EA
:1027A00080F83E10402AE9D1FEF7EBFB10BD000097
:1027B00010B590F83D1090F83E30C26A048DB4B167
:1027C000212903D0402B11D122290FD1418DE1B312
:1027D00090F83E10402942D0416A026809781161A0
:1027E000416A491C4162418D491E418510BD212924
:1027F000E8D120230021082A13D0202A11D012F575
:10280000803F0ED00268546824F4E06454601122C2
:10281000026380F83E1080F83D3000BFFEF718FBE1
:1028200010BD0268546824F4E064546002681468BF
:1028300044F400741460016380F83D3090F83E2049
:1028400080F83E10402AE9D100E002E0FEF799FB53
:1028500010BD0068416821F48061416010BDBDE891
:10286000104000F0F3B8000078B590F83E50C26A0E
:10287000046B90F83D6000230168222E73D1066D31
:102880000EB9402D6FD0056D1DB90569B5F5404FE6
:102890001BD0458D95B3468D484D012E20D0448DDB
:1028A000022C4DD00C6844F480640C6001684C68C4
:1028B000240579D5AA4273D0012A71D0082A6FD095
:1028C000102A6DD0202A6BD06EE04A698A69009286
:1028D0000A6842F480720A60016D491C016578BD86
:1028E000AA4214D10A6822F480620A6001684A6828
:1028F000120504D50A6822F4806217E0FFE74A69EE
:102900008A6900920A6842F400720A6050E0082A5C
:1029100010D0202A0ED0122C0AD0042A03D0022A6A
:1029200001D0102AE6D10A6842F480620A603BE0D6
:10293000012ADFD00A6822F480620A600168DEE7BB
:10294000042A11D0022A0FD0102A0DD00C6844F4AA
:1029500000640C6001684C698C6900940C6824F474
:1029600080640C6008E025E00C6844F480640C602E
:1029700001684C698969009101684C68240517D584
:10298000AA4207D0012A05D0082A03D0102A01D074
:10299000202A0DD14A6842F480524A6008E0FFE7DD
:1029A0004A6842F480524A6001684A698969009124
:1029B000036578BD48698869009078BD0000FFFF15
:1029C00090F83E10402910D00169B1F5804F19D020
:1029D000016DA9B3016D012910D1416C5FF0F102C5
:1029E00001F4407142EAD11106E0016D0029416C09
:1029F00005D0C9B241F0010100680161704701F0E2
:102A0000FE01F9E790F83D102129416C09D0C9B2C7
:102A100041F0010102681161416B29B1896A49B92C
:102A200002E001F0FE01F5E7816B0029E6D0896A3A
:102A30000029E3D00068416841F4006141607047BB
:102A4000FFE7416CF02201F44071CBE710B590F83C
:102A50003D10026D4AB1026D012A14D0026D022AA6
:102A600016D0BDE81040FFF761BCC16C0129816C34
:102A700002D0C1F3072108E00268C9B21161016DFB
:102A8000891C016510BD816CC9B20268116123E027
:102A900022291CD0428D0AB1212920D0428D002A42
:102AA000F0D12129EED101684A6822F4E0624A603F
:102AB00001680A6842F400720A6000210163202262
:102AC00080F83D2080F83E10FEF75BFA10BD0168EB
:102AD0000A6842F480720A60016D491CD1E7416ABC
:102AE000026809781161416A491C4162418D491EA1
:102AF000418510BD38B50C4690F83D2000212825B1
:102B0000954302680B4605D051699169009180F8A0
:102B10003C3038BD556825F480655560E243540764
:102B200000D50121120601D5828900E0028B80F8D0
:102B30003C3092B2FDF749FF38BD00002DE9F0416D
:102B400090F83D300446C26A002120261E4F0068DE
:102B50006FF48065082A01D0202A01D1282B04D0E7
:102B6000212B17D04561BDE8F081E762426822F46D
:102B7000E0624260206845612068026822F4806259
:102B80000260216384F83D6084F83E102046FEF721
:102B90005DF9E8E7E7622122226384F83D6084F86A
:102BA0003E10416821F4E061416020684561206881
:102BB000016821F4806101602046FFF7B7FB2046E1
:102BC000FEF71FFACFE700000000FFFFF8B590F80E
:102BD0003D6004460068416821F4E061416020687E
:102BE000002541690091016841F001010160206800
:102BF000016821F48061016020684168090520D5E1
:102C0000474F222E48D02A2E46D0616B096849686A
:102C10006185618D19B1216C41F004012164416825
:102C200021F400614160606BFDF7ACFC012808D025
:102C3000606B4763606BFDF759FC10B1606B416BD3
:102C40008847608D08B320684169C943490708D4A3
:102C50000069616A0870606A401C6062608D401E95
:102C6000608520684169C943490608D40069616AE2
:102C70000870606A401C6062608D401E6085608DD7
:102C800018B1206C40F004002064206C00B3204692
:102C9000BDE8F840FFF752BBA16B09684968618540
:102CA000618D19B1216C41F004012164416821F466
:102CB00000614160A06BFDF765FC0128C1D0A06BED
:102CC0004763A06BFDF712FC0028BAD0A06BB6E7F3
:102CD0002A2E06D12563282084F83D002046FEF7E1
:102CE0008FF994F83D10202028290DD0216B22293E
:102CF00001D0222E07D1256384F83D0084F83E5090
:102D00002046FEF77DF9F8BD0649E162256384F8A7
:102D10003D0084F83E502046FEF798F8F8BD0000CC
:102D2000712200080000FFFF70B516460D460446EC
:102D30001EE02046FFF7AEFB08B1012070BD681C05
:102D400016D0FDF73BFE801BA84200D885B920684D
:102D50004069C04340070BD5002044F8300F2021C4
:102D60006173A073216941F0200121612073E4E7C0
:102D700020684069C0434007DBD4002070BD0000DC
:102D80002DE9F047984617460D460446C1F307461D
:102D9000DDF820902AE000BFB8F1FF3F26D0FDF714
:102DA0000DFEA0EB0901414502D8B8F1000F1DD17D
:102DB0002068012E16D0806925EA00000004000C6E
:102DC00012D00020B84211D1002044F8300F202149
:102DD0006173A073216941F02001216120730120FA
:102DE000BDE8F0874069E7E70120EBE72068012EA6
:102DF0000AD0806925EA00000004000C06D00020FB
:102E0000B842C9D00020EBE74069F3E70120F7E7BB
:102E10002DE9F047984616460D4604464FF0000946
:102E20004FF0200AC1F3074723E020684069C04300
:102E3000400515D42068016841F4007101602168E3
:102E40006FF480604861C4F8309084F83DA084F845
:102E50003E90216C41F00401216484F83C9021E013
:102E6000701C06D0FDF7AAFDA0EB0800B04203D805
:102E700016B1012F1FD021E02068012F15D08069E5
:102E800025EA00000004000C18D000BF44F8309F71
:102E900084F80DA084F80E90216941F02001216191
:102EA00084F80C900120BDE8F087406925EA000015
:102EB0000004000CEAD12068406901E020688069C4
:102EC00025EA00000004000CAFD1ECE770B516460F
:102ED0000D4604461EE02046FFF7DCFA08B101204B
:102EE00070BD681C16D0FDF769FD801BA84200D894
:102EF00085B920684069C04300060BD5002044F81E
:102F0000300F20216173A073216941F020012161FC
:102F10002073E4E720684069C0430006DBD400204A
:102F200070BD0000084810B5064A64210068FDF72E
:102F300067FA04496422BDE8104064310348FEF793
:102F40001EBF0000580200201000002030010020A9
:102F50008AB210B501464FF47A730248FFF72AF996
:102F6000002010BD3001002010B501464FF47A73E7
:102F700004220248FFF71EF9002010BD3001002096
:102F800010B5020E0A70020C4A70020A8A70C870EC
:102F90004FF47A7304220248FFF70CF9002010BDA9
:102FA0003001002010B50446FDF70EF982B24FF44F
:102FB0007A7321460248FFF7FDF8002010BD00009B
:102FC0003001002010B501464FF47A730122024807
:102FD000FFF7F0F8002010BD3001002070B50C465E
:102FE00006460A4D03E00120FDF7E0FB641E314672
:102FF0002868FDF70BFA401C02D01CB1002070BD00
:10300000002CF0D16FF0020070BD00001000002015
:103010000EB50024554D661E314602A8FFF7DEFFAF
:103020000028F9D19DF808000DF804009DF8000073
:1030300081287CD010DC042821D006DC00281DD09B
:1030400001286AD0022819D115E0112816D01328BA
:1030500014D0802812D152E0C02838D006DC822853
:103060006ED083285AD084287CD150E0C12836D035
:10307000C22877D13BE03EA0FFF776FF72E0012047
:10308000FFF7A0FF3CA0FFF78DFF0020FFF79AFF9E
:103090002020FFF797FF3B491020FFF771FF212009
:1030A000FFF790FF37496420FFF76AFF2320FFF7FF
:1030B00089FF34493448FFF763FF4020FFF782FF60
:1030C0000220FFF77FFF0020FFF77CFF4AE0641C2F
:1030D000E4B2052CA0D3DDF80100286042E0641CB6
:1030E000E4B2052C98D3DDF8010068603AE0641C76
:1030F000E4B2052C90D3DDF80100A86032E0641C36
:10310000E4B2052C88D3DDF80100E8602AE0641CF5
:10311000E4B2052C80D325E009E018E0641CE4B299
:10312000052CD7D3DDF80100800068611AE0641C2B
:10313000E4B2052CCED3DDF801008000686128617F
:10314000641CE4B2052CC5D3DDF80100E861002061
:103150000C4AA96901E01054401C8842FBD309487D
:10316000FFF7F6FE00200090019055E718000020C0
:1031700031414C53000000004C415F5955514952B8
:1031800049000000C6020020809698000D4808B54E
:10319000416941F0010141614069002200F00100F4
:1031A000009011460E20FDF7BFFF0E20FDF7AEFF89
:1031B000002211460F20FDF7B7FFBDE808400F20A1
:1031C000FDF7A4BF001002402DE9F04385B00024B4
:1031D0002D480094019402940394816941F01001F8
:1031E0008161816901F010010491816941F0200140
:1031F0008161816901F020010491816941F004013C
:103200008161816901F004010491816941F0080143
:1032100081618069DFF8748000F008004FF4005588
:103220000490002229464046FDF7C2FBDFF860907B
:103230002F11002239464846FDF7BAFB00950226B9
:1032400001250396CDE9015469464046FDF7C0FAD1
:103250001B208DE8310069460E48FDF7B9FAA80336
:1032600000900D48CDE9010469464846FDF7B0FAE3
:1032700000970396CDE9015469464846FDF7A8FA40
:1032800005B0BDE8F08300000010024000100140CE
:10329000000C014000080140000011100D4810B55D
:1032A0000B4901600C49416000214FF4804281606C
:1032B000C0E9031241618161C1610162FDF702FD54
:1032C000002803D0BDE81040FDF7EAB810BD0000AB
:1032D000005400403C000020A0860100104810B5BA
:1032E0000E4901604FF48271416000218160C1602C
:1032F0004FF400720161C0E905120822C0E90721FC
:10330000416281620A21C162FEF7CCF9002803D034
:10331000BDE81040FDF7C4B810BD0000003001400A
:103320009000002010B58EB00024079408940994F2
:103330000A940B941C2168460C94FCF7CBFF26489A
:103340004FF08041016040F26711C0E9011440F282
:10335000CF71C0E903148461FEF76CFA08B1FDF780
:103360009FF84FF48050079007A91B48FEF7CEFA4C
:1033700008B1FDF795F81848FEF779FC08B1FDF79C
:103380008FF80B940BA914480C94FEF71FFA08B1A0
:10339000FDF786F86020CDE900040294002269461A
:1033A0000D480494FEF7FDFB08B1FDF779F80422FF
:1033B00069460948FEF7F5FB08B1FDF771F80822E8
:1033C00069460548FEF7EDFB08B1FDF769F80248CC
:1033D000FEF7A4FB0EB010BDE80000200C4810B5AD
:1033E0000A4901604FF4E1314160002181600C2203
:1033F000C160C0E904128161C161FEF739FE002895
:1034000003D0BDE81040FDF74BB810BD00380140B7
:1034100030010020FEE7FEE710B5AE2000F096F880
:10342000202000F093F8102000F090F8B02000F079
:103430008DF8C82000F08AF8002000F087F81020EE
:1034400000F084F8402000F081F8812000F07EF840
:10345000DF2000F07BF8A12000F078F8A62000F033
:1034600075F8A82000F072F83F2000F06FF8A42053
:1034700000F06CF8D32000F069F8002000F066F846
:10348000D52000F063F8F02000F060F8D92000F0BB
:103490005DF8222000F05AF8DA2000F057F81220E8
:1034A00000F054F8DB2000F051F8202000F04EF836
:1034B0008D2000F04BF8142000F048F800F008F8D8
:1034C00000F00CF9BDE81040AF2000F03FB800005C
:1034D0004FF480610148FCF7DBBE0000AB03002025
:1034E0003CB51C78059D203ACDE900455D68E41D9A
:1034F0005B78E408544303FB045200F087F83CBDBA
:103500002DE9F8411E46154688460446079F09E006
:103510003346414620460097FFF7E2FF70786D1C66
:103520002044C4B22A78002AF2D1BDE8F881000014
:1035300008B54FF0FF3200920B4602467821024850
:10354000FDF788FC08BD00003C00002002494870DF
:1035500002210148FFF7ECBF3A0000202DE9FC41B1
:1035600080460720CDE9000301F00704CD08164688
:1035700002FA04F01F46C2B223464146284600F034
:1035800089F8002C0CD0601EC0B2CDE90007C4F150
:10359000080026FA00F2681C0023414600F07AF881
:1035A000BDE8FC812DE9FC4301F007061446CD0877
:1035B0009846814601F0070106EB080204FA01F083
:1035C000099F082A16D90721CDE90017C2B2334650
:1035D0004946284600F05EF808EB06000938C0B2FC
:1035E000CDE90007C6F1080024FA00F2681C0023A8
:1035F000494607E0521ED1B2CDE90017C2B23346A8
:103600004946284600F046F8BDE8FC832DE9FF4F07
:1036100082B01D460F989346C70800F00700884601
:103620000026019018E0029800240BEB060A00EB3C
:1036300006090DE004FB05F0109B10F80A2008EBCA
:10364000C400C1B209F0FF00FFF788FF641CE4B2B8
:10365000BC42EFD3761CF6B2AE42E4D30198002808
:1036600015D005FB07F6002408EBC7070DE01098FE
:103670000090311902981BF801202044F9B2C0B221
:10368000019BFFF78FFF641CE4B2AC42EFD306B09E
:10369000BDE8F08FF0B50828DDE9056419D280296E
:1036A00017D20CB1D243D2B2FF25761C05FA06F62A
:1036B000C3F10803084F46EA0204DD4007EBC017D8
:1036C000044B785CB2432C43AA4320401A70104349
:1036D0007854F0BD38000020AB03002070B5104DC9
:1036E00040200024287005F1810600BF04F1B000DD
:1036F000C0B2FFF72BFF0020FFF728FF1020FFF7D5
:1037000025FF06EBC4118022681CFCF77CFD81219B
:103710000348FFF70DFF641CE4B2082CE6D370BD2C
:103720002A03002070477047704730B58FB02821BA
:103730006846FCF7CFFD14210AA8FCF7CBFD012158
:103740000804CDE900100024029402250491CDE97B
:1037500007504FF4E01009906846FDF713FE08B1DA
:1037600072B6FEE70F20CDE90A054FF48060CDE97F
:103770000C4002210AA80E94FDF708FD002801D094
:1037800072B6FEE70FB030BD704700000148FEF78B
:103790002CB9000000020020F0B50268194B1A4C49
:1037A0001A4D4FF08047984205D0B84203D0A0424E
:1037B00001D0A84203D122F070064A6832439842F1
:1037C00005D0B84203D0A04201D0A84203D122F4D0
:1037D0004074CA6822434C6922F08002224302608E
:1037E0008A68C2620A688262984201D109690163EB
:1037F000012141610169C90703D0016921F001017B
:103800000161F0BD002C01400004004000080040B0
:1038100010B501F01F030121046A99408C43046232
:10382000016A9A401143016210BD10B5846842EAF2
:10383000032224F47F440A432243826010BD82683D
:1038400022F070020A4342F00701816070470000D5
:1038500030B5036A026A22F001020262426884699A
:1038600024F073050C682C4323F002058B682B436E
:103870000A4DA8420BD123F00805CB6822F4407210
:103880002B434D6923F0040315438A692A434260A0
:10389000846149684163036230BD0000002C01402F
:1038A00030B5026A036A23F0100303624368846937
:1038B0000D6824F4E64444EA05248D6822F02002D1
:1038C00042EA05120B4DA8420ED1CD6822F08002CB
:1038D00042EA05124D6923F4406343EA85038D698A
:1038E00022F0400243EA85034360846149688163B2
:1038F000026230BD002C014030B5036A026A22F436
:10390000807202624268C46923F4007324F0730574
:103910000C682C438D6843EA05230C4DA8420ED158
:10392000CD6823F4006343EA05234D6922F4405235
:1039300042EA05128D6923F4806342EA051242606F
:10394000C4614968C163036230BD0000002C0140BE
:1039500030B5046A026A22F4805202624268C36986
:103960000D6823F4E64343EA05238D6824F40054EC
:1039700044EA0534064DA84204D14D6922F4804240
:1039800042EA85124260C36149680164046230BD45
:10399000002C014010B5036A046A24F0010404629B
:1039A000846924F0F00444EA021423F00A020A4372
:1039B0008461026210BD10B5036A046A24F0100429
:1039C0000462846923F0A00324F4704444EA0232C0
:1039D00043EA01118261016210BD10B5406A002105
:1039E000C185C184FEF70CFA10BD70B5446A206829
:1039F000406994F84110C0F3C0100025212904D17A
:103A000018B1E584204600F08EF82068406994F8EB
:103A10004210C0F38010222904D118B1E585204658
:103A200000F05AF8606C40F0100060642046FEF729
:103A3000E7F970BD10B50146406A096809684FF0A2
:103A4000000289062ED4C28501680C3151E8003F7E
:103A500023F4807341E80034002CF5D1016814315F
:103A600051E8003F23F0010341E80034002CF5D178
:103A70000168143151E8003F23F0400341E800346D
:103A8000002CF5D1202180F84210016B012909D1C9
:103A900001680C3151E8003F23F0100341E8003485
:103AA000002CF5D14263016B012902D0FEF780FBA7
:103AB00010BD818DFEF788F910BD10B5406A012157
:103AC0004163016B012902D0FEF773FB10BD818DAC
:103AD0004908FEF779F910BD01680C3151E8002F53
:103AE00022F4907241E80023002BF5D101681431D3
:103AF00051E8002F22F0010241E80023002BF5D10C
:103B0000016B012909D101680C3151E8002F22F025
:103B1000100241E80023002BF5D1202180F842104B
:103B200000210163704701680C3151E8002F22F039
:103B3000C00241E80023002BF5D1202180F841107C
:103B4000704708B590F84210222901D0022008BD24
:103B500082684FF480539A4201D1016921B1816A90
:103B60009A421BD04AB10AE00268816A5268C2F3E5
:103B700008020A80816A891C08E0026972B1026841
:103B8000526802F07F020A70816A491C8162C18D0D
:103B9000491E0904090CC18503D01BE00268526864
:103BA000F1E70168CA6822F02002CA600168CA68A9
:103BB00022F48072CA6001684A6922F001024A61F7
:103BC000202180F8421000214163026B012A03D0BA
:103BD000FEF7EEFA002008BD016301680C3151E8E0
:103BE000002F22F0100241E80023002BF5D10168DC
:103BF0000A68D20602D50A6849680091818DFEF7ED
:103C0000E3F8E7E770B5044600680169E26821F46B
:103C10004051114301612169A0680843616908436B
:103C20002168CA6841F20C639A430243CA60206863
:103C30004169A26921F44071114341611E49206824
:103C4000884202D1FDF768FB01E0FDF755FB00EB70
:103C5000C00101EB0012606864218000B2FBF0F348
:103C6000B3FBF1F36FF018067343B2FBF0F5B2FB50
:103C7000F0F605EB8305322303EB0515B5FBF1F5F3
:103C8000B6FBF1F605F0F00505EB0615B2FBF0F614
:103C9000B2FBF0F0B0FBF1F06FF01802504306EB0E
:103CA000800003EB0010B0FBF1F0216800F00F0082
:103CB0002844886070BD00000038014038B581623A
:103CC00004468285002013466064222284F8422044
:103CD000E56B1B4AAA62E56B1A4AEA62E56B1A4A6F
:103CE0002A63E26B50630A462168E06B091DFCF70A
:103CF00025FD2068016840680090206948B120686F
:103D00000C3050E8001F41F4807140E80012002A96
:103D1000F5D12068143050E8001F41F0010140E85F
:103D20000012002AF5D12068143050E8001F41F03D
:103D3000400140E80012002AF5D1002038BD000003
:103D4000353A0008BB3A0008EB3900082DE9F84382
:103D5000984617460D460446089E24E0701C22D063
:103D6000FCF72CFEA0EB0800B0421AD8CEB12068B8
:103D7000C168490717D5802D15D0402D13D0016893
:103D8000C94309070FD40168002540680090204608
:103D9000FFF7A2FE0820606484F840500120BDE8CF
:103DA000F8830320FBE72068006835EA000004D0B0
:103DB0000020B842D2D00020F1E70120F9E700004E
:103DC0000148FEF71FB8000030010020FEE7090798
:103DD000090E002804DB00F1E02080F80014704791
:103DE00000F00F0000F1E02080F8141D7047000083
:103DF00008B5FDF70FF9FFF798FCFFF7E5F9FFF7B6
:103E0000C5F9FFF7EBFAFFF749FAFFF767FAFFF793
:103E100089FAFFF787F81420FCF7C8FCFFF7FCFAD3
:103E2000FFF756FB00200A210090194B19A2084603
:103E3000FFF766FBFFF752FC00211848FDF746FF2D
:103E400004211648FDF742FF08211448FDF73EFF04
:103E5000124D4FF416744FF4FA774FF4E1664FF4B5
:103E6000967828684463286844633846FCF79EFCCB
:103E70002968002048633846FCF798FC28683446D7
:103E800046632968C1F83880FFF7C2F8E9E7000007
:103E9000404300085955514952490000E8000020AC
:103EA000010202030405060708090A0B0C0D0E0F98
:103EB00010100000000000000000010203040607CB
:103EC00008090000000001020304000000000000D7
:103ED0000000000000000000FC00000000000200E4
:103EE0000000000C020C020000000000000090D056
:103EF000BCD0BC900003000300001824FE448C00DA
:103F00000302070201001824D8B04C80000300010E
:103F10000201C038E438E000010202010202080692
:103F200000000000000000000000000000F8040293
:103F3000000000010204000204F800000004020175
:103F400000009060F8609000000001000000202058
:103F5000FC20200000000100000000000000000024
:103F600008060000000020202020200000000000A3
:103F700000000000000000000002000000000080BF
:103F8000601C0200040300000000F8040404F800B0
:103F90000102020201000008FC000000000203020E
:103FA00000001884442418000302020202000804DE
:103FB0002424D80001020202010040B088FC8000E5
:103FC0000000000302003C242424C4000102020279
:103FD0000100F824242CC0000102020201000C049C
:103FE000E41C0400000003000000D8242424D800AE
:103FF00001020202010038444444F80000030202B6
:10400000010000001000000000000200000000009D
:10401000200000000000060000000020508804027C
:1040200000000000010290909090900000000000BD
:104030000000000204885020000201000000180463
:10404000C4241800000002000000F804E494F80002
:1040500001020202020000E09CF080000203000066
:10406000030204FC2424D800020302020100F80425
:1040700004040C0001020202010004FC0404F80024
:1040800002030202010004FC24740C000203020279
:10409000030004FC24740C00020302000000F0087A
:1040A0000444CC4000010202010004FC2020FC0476
:1040B0000203000003020404FC04040002020302E1
:1040C0000200000404FC040406040403000004FCD1
:1040D00024D00C0402030200030204FC04000000CC
:1040E000020302020203FC3CC03CFC00030003008C
:1040F000030004FC30C4FC04020302000300F804C3
:104100000404F80001020202010004FC2424180047
:10411000020302000000F8848404F8000102020790
:10412000050004FC24649800020302000302182422
:1041300024448C000302020201000C04FC040C0065
:1041400000020302000004FC0000FC040001020263
:104150000100047C80E01C040000030000001CE05F
:104160003CE01C00000300030000049C609C040071
:10417000020300030200041CE01C0400000203020E
:1041800000000C84641C040002030202030000000F
:10419000FE020200000007040400000E30C0000010
:1041A000000000010200000202FE000000040407FB
:1041B00000000004020400000000000000000000F5
:1041C00000000000080808080808000002000000BD
:1041D0000000000000000040A0A0C000000102029A
:1041E000030204FC2020C00000030202010000C002
:1041F0002020600000010202020000C02024FC0018
:1042000000010202030200C0A0A0C00000010202DF
:1042100002000020F82424040002030202000040EF
:10422000A0A0602000070A0A0A0404FC2020C000A5
:104230000203020003020020E40000000002030267
:104240000000000020E4000008080807000004FC4B
:1042500080E020200203020003020404FC000000AE
:10426000020203020200E020E020C000030003007D
:10427000030020E02020C00002030200030200C06F
:104280002020C00000010202010020E02020C00028
:10429000080F0A02010000C02020E0000001020A0D
:1042A0000F0820E040202000020302000000006010
:1042B000A0A020000002020203000020F82000005D
:1042C00000000102020020E00020E00000010202E4
:1042D000030220E0208060200000030100006080D5
:1042E000E080600000030003000020608060200088
:1042F00002030003020020E020806020080807017C
:1043000000000020A0602000000203020200000064
:1043100020DE0200000000070400000000FF000093
:104320000000000F00000002DE2000000004070073
:10433000000002010204040200000000000000006E
:104340000C060000CA3E0008684300080000002078
:104350003C00000028010008A44300083C000020A5
:10436000D40D00004401000801000000100000000E
:104370000000000000127A00480200200000000047
:10438000000000000000000000000000000000002D
:10439000000000000000000000000000000000001D
:0443A0000000000019
:04000005080000ED02
:00000001FF
