:020000040800F2
:1000000030310020C9010008272A000837250008E0
:10001000252A0008A3030008234E00080000000062
:10002000000000000000000000000000D12D0008CA
:10003000EB04000800000000CF2D0008D32D0008BD
:10004000E3010008E3010008E3010008E301000800
:10005000E3010008E3010008E3010008E3010008F0
:10006000E3010008E3010008E3010008E3010008E0
:10007000E3010008E3010008A9040008B504000832
:10008000E3010008E3010008E3010008A14D0008B6
:10009000AD4D0008E3010008E3010008E30100089A
:1000A000E3010008E3010008E3010008E3010008A0
:1000B000E30100084D2E0008592E0008E301000856
:1000C000E3010008E3010008E3010008E301000880
:1000D000E301000845340008E3010008E3010008DB
:1000E000E3010008E3010008E301000800F002F862
:1000F00000F05AF80AA090E8000C82448344AAF168
:100100000107DA4501D100F04FF8AFF2090EBAE865
:100110000F0013F0010F18BFFB1A43F0010318473B
:1001200058500000785000000A444FF0000C10F8BE
:10013000013B13F0070408BF10F8014B1D1108BF65
:1001400010F8015B641E05D010F8016B641E01F805
:10015000016BF9D113F0080F1EBF10F8014BAD1C55
:100160000C1B09D16D1E58BF01F801CBFAD505E073
:1001700014F8016B01F8016B6D1EF9D59142D6D3CD
:10018000704700000023002400250026103A28BFF5
:1001900078C1FBD8520728BF30C148BF0B607047F9
:1001A0001FB51FBD10B510BD00F0C1F81146FFF717
:1001B000F7FF04F047FE00F0DFF803B4FFF7F2FFAB
:1001C00003BC00F0E7F800000948804709480047F1
:1001D000FEE7FEE7FEE7FEE7FEE7FEE7FEE7FEE7F7
:1001E000FEE7FEE704480549054A064B7047000054
:1001F0004B2E0008ED000008302B0020303100208D
:10020000302D0020302D00202DE9F05F1B481C49C7
:100210001C4A12681C4B1B681C4C1D4D2D68D0F8E5
:1002200000804FF4806A1B4EDFF86CB04FF4004C36
:100230004FF0004ECBF800C037884FEA17274745EC
:1002400018BF01328754B84651F8227007F10107F0
:1002500041F8227003F10103AB4209DA2768002F4D
:1002600006D1524504DA00BF00BFCBF800E0E1E759
:100270000448026004480360BDE8F09F14040020B5
:10028000140800202C000020300000201000002066
:100290003C000020080C01401008014010B5431C30
:1002A00002E010F8011B71B18107FAD14FF0013261
:1002B00002C88C1A8C4314EAC211F9D0C01A0A067B
:1002C00003D0C01E10BDC01A10BD0A0401D0801E8C
:1002D00010BD0902FCD0401E10BD4FF0000200B559
:1002E000134694469646203922BFA0E80C50A0E859
:1002F0000C50B1F12001BFF4F7AF090728BFA0E807
:100300000C5048BF0CC05DF804EB890028BF40F8D2
:10031000042B08BF704748BF20F8022B11F0804F14
:1003200018BF00F8012B704770477047704775463B
:1003300000F02CF8AE4605006946534620F0070051
:10034000854618B020B5FFF74DFFBDE820404FF0BF
:1003500000064FF000074FF000084FF0000B21F0AF
:100360000701AC46ACE8C009ACE8C009ACE8C0097C
:10037000ACE8C0098D46704710B50446AFF3008065
:100380002046BDE81040FFF718BF00000048704746
:10039000D02A002001491820ABBEFEE7260002004B
:1003A0007047FEE704284FF00000704700207047B8
:1003B00010B500220449054803F055F904490348E3
:1003C00003F04BF9002010BDD821002014190020A3
:1003D000D81D002070B505460E4600243068002860
:1003E00007D9295D074800F041F8641C3068A04235
:1003F000F7D82946044803F030F9034803F00CF914
:10040000002070BDC40300201419002010B50A4656
:100410000849D1F8B812D1F81412002901D00120EE
:1004200010BD0146034803F01EF9BDE81040014825
:1004300003F094B914190020C0E9021200214160B0
:1004400001607047D0E900329A420CD0C3689A5CD0
:100450000A704168491C41608268914201D10021C3
:100460004160002070474FF0FF30704710B50268C0
:100470000B4B521C984202D10A4C01232360836823
:10048000934200D100224368934205D00468C368B8
:1004900019550260002010BD4FF0FF3010BD000064
:1004A000C403002010000020014800F0B3B8000091
:1004B000D4020020014800F0ADB8000090020020F6
:1004C00030B590F840500124AC40C56B6C600468B6
:1004D00063604368102B036803D099600068C260B2
:1004E00030BD9A600068C16030BD70471E2000F0CA
:1004F00021BB1E2000F02FBB72B6FEE770B50B4883
:100500000168001D0568001D0068084400280CD023
:10051000074C0822A11C02F00FF804F11201284632
:10052000BDE87040042202F007B870BDE8F7FF1F75
:100530007800002010B590F821100022022905D083
:100540000421816380F82020012010BD01680B6820
:1005500023F00E030B6001680B6823F001030B60AE
:1005600090F84030C46B012101FA03F3636080F816
:10057000211080F82020104610BD000010B590F822
:1005800021100024022903D00421816301243DE0CD
:1005900001680A6822F00E020A6001680A6822F007
:1005A00001020A601A4A0168914201D1012121E049
:1005B000174A1432914201D110211BE0144A28320B
:1005C000914201D1891515E0114A3C32914201D185
:1005D00089140FE00E4A5032914202D14FF480311B
:1005E00008E00B4A6432914202D14FF4801101E0DD
:1005F0004FF08071064A083A5160012180F82110BD
:10060000002180F82010416B01B18847204610BDC1
:10061000080002402DE9F05FC16B0C6801680B68AF
:10062000D0F840C0042202FA0CF2494DDFF824A1B0
:10063000494E4A4FDFF828B1DFF828E122422CD09A
:100640005A072AD50A68920603D40A6822F00402DF
:100650000A600168A94201D1042219E0514501D183
:10066000402215E0B14202D14FF4806210E0B9425D
:1006700002D14FF480420BE0594502D14FF4802261
:1006800006E0714502D14FF4800201E04FF0806234
:100690002F4908394A60C16A3BE04FF0020808FA66
:1006A0000CF818EA040F4FF000094FF0010235D0A2
:1006B0005FEA837832D50B689B0605D40B6823F07C
:1006C0000A030B6080F821200168A94201D10222AF
:1006D00019E0514501D1202215E0B14202D14FF479
:1006E000007210E0B94202D14FF400520BE05945BC
:1006F00002D14FF4003206E0714502D14FF40012EE
:1007000001E04FF00072124908394A6080F82090E9
:10071000816A00291AD0BDE8F05F0847082505FA6C
:100720000CF5254212D01B0710D50B6823F00E03E1
:100730000B6090F84010C36B02FA01F159608263BC
:1007400080F8212080F82090016BE2E7BDE8F09F5F
:10075000080002401C0002403000024044000240F9
:10076000580002406C00024030B528B308C8134955
:1007700014221944B1FBF2F18900C163104981636D
:10078000022141771A6843F6F0718A43D0E90014D8
:100790002143D0E902452C432143046921434469A4
:1007A00021438469214311431960002141630122DF
:1007B00042770177084630BD012030BDF8FFFDBF0C
:1007C0000000024070B5044690F820000025012882
:1007D0000CD0012084F8200094F821600020012E24
:1007E00006D084F820000225284670BD022070BD86
:1007F000022684F82160A0632068066826F00106BE
:1008000006602046FFF75CFEE06A00282068016869
:1008100002D041F00E0106E021F0040101602068E1
:10082000016841F00A0101602068016841F001019E
:100830000160D9E72DE9F84FDFF8B8910024A9F15C
:10084000040B23460F2709F1040AABF1040EC9E09B
:100850000125A5402A40AA427DD1674ED1F804C0A7
:10086000ACEB0608B44532D014DCBCF1030F3AD02F
:1008700009DCBCF1000F2AD0BCF1010F1CD0BCF187
:10088000020F31D11DE0BCF1110F17D0BCF1120FD6
:100890002AD119E0B8F5881F19D006DCB8F5803FD9
:1008A00015D0B8F5801F1FD111E0B8F5001F0ED08C
:1008B000B8F5041F18D10AE0CB6815E0CB681B1D02
:1008C00012E0CB6808330FE0CB680C330CE08B6888
:1008D0002BB1012B4FF0080303D0456104E0042342
:1008E00002E0056100E00023FF2A01D8064601E08E
:1008F00000F104064FEA840501D9A5F12005D6F8D8
:10090000008007FA05FC28EA0C0803FA05F548EA16
:100910000508C6F800804D68ED0062D5374DAE6918
:1009200046F00106AE61AD6924F0030605F001054D
:100930000095334D06EB050CDCF80850A607360F82
:1009400007FA06F825EA0805DFF8B880404503D124
:100950004FF0000817E044E0DFF8AC80404502D1DA
:100960004FF001080FE0DFF8A480404502D14FF0BE
:10097000020808E0DFF89880404502D14FF00308F4
:1009800001E04FF0040808FA06F848EA0508CCF838
:1009900008804D68D9F80060ED024D4601D5164338
:1009A00000E096432E604D68DAF80060AD025546CF
:1009B00001D5164300E096432E604D68DBF80060D9
:1009C000AD035D4601D5164300E096432E604D68A9
:1009D000DEF80060ED03754601D5164300E096434E
:1009E0002E60641C0D682A46E5407FF431AFBDE8F7
:1009F000F88F0000080401400000111000100240B0
:100A00000000014000080140000C014000100140BE
:100A1000001401400AB1016170470904FBE70000BE
:100A2000014880687047000000000020024881688B
:100A3000027811448160704700000020074810B51B
:100A4000016841F010010160032000F0B1F80F20AF
:100A500000F006F800F050F8002010BD0020024021
:100A600030B505461F4887B0C16941F00401C16136
:100A7000C06906A900F00400009001A800F062FE21
:100A80000498B0B100F07EFE40001749174AB0FB51
:100A9000F1F11748491E0260416040F2E73200213F
:100AA000C0E903218160816101F078F8040003D07E
:100AB00015E000F067FEE8E70D4801F0C5F8040016
:100AC0000DD11E2000F047F8102D07D20022294634
:100AD0001E2000F04DF80748056000E0012407B033
:100AE000204630BD0010024040420F000008004088
:100AF00018030020040000200C4808B5816941F06B
:100B000001018161816901F001010091C16941F038
:100B10008051C161C06900F0805000900448416874
:100B200021F0E06141F00071416008BD0010024019
:100B30000000014000280DDB00F01F020121914060
:100B40004009800000F1E020C0F88011BFF34F8F12
:100B5000BFF36F8F7047002809DB00F01F020121EF
:100B600091404009800000F1E020C0F8001170477A
:100B7000F0B40E4B1B680C46C3F30223C3F1070508
:100B8000042D00D90425191D072901D2002300E0F6
:100B9000DB1E012606FA05F1491E214099409E40C0
:100BA000761E16403143F0BC04F03CB90CED00E079
:100BB000064900F0070208684FF6FF03184040EAB4
:100BC0000220034A10430860704700000CED00E06B
:100BD0000000FA0510B50C0607D501F0070101EB7E
:100BE000810100EBC100103005E001EB810100EB59
:100BF000C10000F5A87099B232B1012202730181DF
:100C0000190C4181002010BD00220273C180F9E758
:100C1000704701EB810200EBC202D0F8D402526AA5
:100C200003F00CB801EB810200EBC202D0F8D40251
:100C3000D2F8642103F06DB870B504460B0601F0DC
:100C4000070000EB800104EBC1014FF001024FF0FF
:100C5000000502D54A74103103E081F8515101F5C5
:100C6000A871087094F89002012808D084F89022A6
:100C7000206803F029FD84F89052002070BD022006
:100C800070BD70B5044601F00F002279904201D981
:100C9000012070BD0B0601F0070000EB800104EBA2
:100CA000C1014FF001024FF0000502D54A74103126
:100CB00003E081F8515101F5A8718D70087094F826
:100CC0009002012808D084F89022206803F099FD52
:100CD00084F89052002070BD022070BD2DE9F05FB5
:100CE00004685FEA424C0B788D69B4F850C04FF04D
:100CF00000064BF68F7948F2800A48F68F7B48F25F
:100D0000C00E4FF480672AD54FF0020808EBC308E5
:100D1000C44407EB4C07E45BC4F30904A54203D3C6
:100D20002D1B8D6101D00BE08E61066836F82350D3
:100D300005EA090585F4005545EA0A0526F8235019
:100D4000520609D50D78036833F8252002EA0B0214
:100D500042EA0E0223F8252084B30A8929E04FF0E5
:100D6000060808EBC308C44407EB4C07E45BC4F374
:100D70000904A54203D32D1B8D6101D00BE08E61C8
:100D8000066836F8235005EA090585F4005545EA5A
:100D90000A0526F82350520609D40B78056835F861
:100DA000232002EA0B0242EA0E0225F823202CB18E
:100DB0004A8949690068234604F002F82046BDE8E4
:100DC000F09F2DE9F05F054600680C465FEA426C33
:100DD00016468B692278B0F850C048F68F774CF2EF
:100DE00080094FF4004B4FF6FF7E4FF4806A4FF0BE
:100DF000000172D54FF0020808EBC208E0440AEB8C
:100E0000480C30F80C00C0F30900834211D91B1ABA
:100E1000A3610FD0730407D52E6836F822303B400B
:100E200043EA090326F8223094F82420012A47D007
:100E300052E1A161607810B1012813D01AE028684E
:100E4000B0F85030184400EB0210B0F80424C2F39C
:100E50000902A0F80424B0F8042442F40042A0F8E7
:100E6000042407E02868B0F85030184400EB021062
:100E7000A0F804146278286812B1012A11D018E091
:100E8000B0F850100844217800EB0110B0F80C14B1
:100E9000C1F30901A0F80C14B0F80C1441F400419E
:100EA00005E0B0F850201044227800EB0210A0F8C2
:100EB0000C1421782846FFF7ACFE700472D40BE1C5
:100EC000626902446261E2690244E2612369226A62
:100ED0009A4203D31846111A04E03EE084F8241025
:100EE0000AB110462162617811B1012929D031E09F
:100EF0002968B1F850201144227801EB0211B1F8B1
:100F00000424C2F30902A1F8042401F204413E289A
:100F100007D94209C30600D1521E0B884BEA822230
:100F200007E048B14208C30700D0521C0B880EEA04
:100F3000822213430B800DE00A8842F400420A80AB
:100F400008E02968B1F850201144227801EB021121
:100F5000A1F8040483B22289BAE04FF0060808EB36
:100F6000C208E0440AEB480C30F80C00C0F309005A
:100F7000834211D31B1AA3610FD0730407D42E68C8
:100F800036F822303B4043EA090326F8223094F831
:100F90002420012A51D09FE0A161607818B1012876
:100FA00014D01BE03FE02868B0F85030184400EB44
:100FB0000210B0F80424C2F30902A0F80424B0F827
:100FC000042442F40042A0F8042407E02868B0F8A2
:100FD0005030184400EB0210A0F80414627828681E
:100FE00012B1012A11D018E0B0F85010084421784D
:100FF00000EB0110B0F80C14C1F30901A0F80C14B7
:10100000B0F80C1441F4004105E0B0F85020104451
:10101000227800EB0210A0F80C1421782846FFF784
:10102000F8FD700458D42278296831F8220038403D
:1010300040EA090021F822004EE062690244626140
:10104000E2690244E2612369226A9A4203D31846A4
:10105000111A216204E00AB11046216284F82410BA
:101060006278296812B1012A28D02FE0B1F8502007
:101070001144227801EB0211B1F80C24C2F30902E9
:10108000A1F80C2401F20C413E2807D94209C306FD
:1010900000D1521E0B884BEA822207E048B1420879
:1010A000C30700D0521C0B880EEA822213430B8028
:1010B0000CE00A8842F400420A8007E0B1F85020B0
:1010C0001144227801EB0211A1F80C04628983B269
:1010D0006169286803F092FE2278296831F82200BD
:1010E00048F6BF73184080F0300048F28003184380
:1010F00021F822000020BDE8F09F01F0070101EB7C
:10110000810100EBC100D0F86C0170472DE9F0417E
:1011100004460F0601F0070000EB800104EBC1015B
:101120004FF001064FF0000502D54E74103103E078
:1011300081F8515101F5A871022B08700A61CB703A
:1011400000D10D7194F89002012809D084F89062C2
:10115000206803F069F9284684F89052BDE8F081D0
:101160000220FBE710B501F0070404EB840100EB5B
:10117000C101C1E959230022C1F86C2181F8512134
:1011800081F85041006801F5A87103F08FFB002041
:1011900010BD70B504460D4601F007002179884264
:1011A00001D9012070BD29064FF000064FF0010261
:1011B00006D500EB800104EBC1014A74103107E051
:1011C00005EB850104EBC10181F8516101F5A871BE
:1011D0008A70087094F89002012807D084F8902251
:1011E000206803F04AFB680702D006E0022070BDC9
:1011F00004F52671206803F002FB84F89062002059
:1012000070BD10B501F0070404EB840100EBC101CF
:10121000C1E90923012281F834200B630023CB624A
:101220004A7401F8104F006803F040FB002010BD25
:101230001FB50446006803F0BFFD010403D5204636
:1012400001F0F2FB1FBD41050DD5206830F8441FA9
:1012500021F480610180204600F008F90021204639
:1012600000F01FF91FBD410405D5206830F8441F68
:1012700021F4804174E0810405D5206830F8441FD2
:1012800021F400516CE0C10414D5206830F8401FEF
:1012900021F004010180206830F8401F21F008018E
:1012A0000180204600F0F5F8206830F8441F21F452
:1012B000805155E0010540D5D4F800200020694652
:1012C00032F8203021F81030401CC0B20828F7D383
:1012D00032F8400F40F001001080206830F8402FB5
:1012E00022F0010202802068B0F844205205FBD5AC
:1012F00030F8442F22F4806202800020236831F805
:10130000102023F82020401CC0B20828F6D3206803
:1013100030F8401F41F008010180206830F8441F78
:1013200021F400610180206830F8401F41F0040181
:101330000180204600F0E8F81FBD810509D520682E
:1013400030F8441F21F400710180204600F0A5F818
:101350001FBDC005FCD5206830F8441F21F4807102
:1013600001801FBD2DE9F041040004D094F89102E2
:10137000002518B107E00120BDE8F08184F8905203
:10138000204600F04DF8032084F891026571206832
:1013900003F02EFA94E80F0003F094F9022698BBAC
:1013A0000021206803F022FD70BB002001270BE024
:1013B00000EB800104EBC1014F740874CD740D6221
:1013C0004D62401CC0B28D6221798142F0D800206C
:1013D00012E000BF00EB800104EBC10181F8515124
:1013E00081F8500181F85351C1F86051C1F864513E
:1013F000401CC0B2C1F8685121798142EAD894E812
:101400000F0003F0ECF910B184F89162B3E7657353
:1014100084F89172206803F0E0F90020ACE7000046
:1014200008B50068A0F18041B1F5B8411AD10E4865
:10143000C16941F40001C161C06900F4000000907D
:10144000002211461320FFF793FB1320FFF783FBC5
:10145000002211461420FFF78BFBBDE80840142042
:10146000FFF779BB08BD00000010024070B50446CC
:101470000125A079022801D0FFF73EF82946D4F8CB
:10148000D40202F035FDD4F8D402BDE8704002F079
:10149000F0BCD0F8D40202F015BDD0F8D40202F0AE
:1014A0001BBD10B5044690F8900201280AD0012017
:1014B00084F890026173206803F09AFC002084F89D
:1014C000900210BD022010BDD0F8D42200F5267184
:1014D000104602F019BD10B5044690F8900201289C
:1014E00010D0012084F89002206803F050FC012104
:1014F0002046FFF78DFB206803F06DF9002084F88B
:10150000900210BD022010BD10B50446D4F8D402DC
:1015100002F03BFDA07A002804D00348016841F0A6
:101520000601016010BD000010ED00E02DE9F84358
:1015300005460078354CC00754D0E0690026C0004D
:1015400008D4E06940F08050E061E069012600F0D5
:10155000805000902E480168C90512D40168804669
:1015600041F480710160FFF75BFA074605E000BFB8
:10157000FFF756FAC01B642823D8D8F80000C0052E
:10158000F6D5206A10F4407021D0A98801F440718A
:1015900081421CD0206A1F49012220F440700A6059
:1015A00000220A602062C00711D0FFF739FA07460F
:1015B00041F2883808E000BFFFF732FAC11B41450D
:1015C00002D90320BDE8F883206A8007F4D5206A99
:1015D000696820F44070084320621EB1E06920F081
:1015E0008050E0612878800705D56068A96820F4FC
:1015F0004040084360602878C00605D56068E96807
:1016000020F48000084360600020DBE70010024007
:1016100000700040400442422DE9F0470F460500AB
:1016200061D0434E306800F00700B84209D23068FC
:1016300020F0070038433060306800F00700B842FF
:1016400051D128683B4C810712D5400703D560680B
:1016500040F4E06060602878000703D5606840F4DB
:10166000605060606068A96820F0F0000843606026
:101670002878C00728D06868012810D0216802287F
:1016800010D0890700292EDA616821F00301014397
:101690006160FFF7C5F9804641F288390DE02168A5
:1016A0008903EFE78901EDE7FFF7BAF9A0EB08013D
:1016B000494502D90320BDE8F0876068696800F0F9
:1016C0000C00B0EB810FEFD1306800F00700B8429A
:1016D0000BD9306820F0070038433060306800F0E4
:1016E0000700B84201D00120E5E72878400705D57A
:1016F0006068E96820F4E0600843606028780007CB
:1017000006D56068296920F4605040EAC100606035
:1017100000F058F86168084AC1F30311515CC840F1
:101720000649086006480068FFF79AF90020C2E7FA
:1017300000200240001002405E5100080C00002012
:10174000040000200F2202600C4A536803F00303D8
:101750004360536803F0F0038360536803F4E0636D
:10176000C36052684FF4E06303EAD20202610448A6
:10177000006800F007000860704700000010024099
:10178000002002400448054900684968044AC1F342
:101790000221515CC84070470C000020001002403C
:1017A0006E5100080448054900684968044AC1F3BD
:1017B000C221515CC84070470C000020001002405C
:1017C0006E5100080E4A51680E4801F00C03042BBC
:1017D00011D0082B0FD10C48C1F38343C903C05C5F
:1017E0000AD55168084AC1F34041921E515C054A2E
:1017F0005043B0FBF1F07047044948437047000084
:101800000010024000127A004E51000800093D000D
:101810002DE9F84F040070D02078C04DC00749D0A2
:101820006868C0F38100012807D06868C0F38100B0
:10183000022809D16868C00306D52868800339D515
:1018400060680028E7D035E06068B0F5803F0BD0D5
:1018500010B1B0F5A02F11D0286820F48030286096
:10186000286820F4802002E0286840F48030286056
:10187000606890B1FFF7D4F806460AE0286840F4A3
:1018800080202860F0E700BFFFF7CAF8801B6428BB
:1018900073D828688003F7D50CE0FFF7C1F8064637
:1018A00005E000BFFFF7BCF8801B6428F0D828686B
:1018B0008003F7D420789A4E80074FF001094FF04B
:1018C000000839D5686810F00C0F07D06868C0F3BD
:1018D0008100022809D16868C00306D428688007FF
:1018E00014D52069012808D110E02069B0B1C6F8EC
:1018F0000090FFF795F8074605E00AE1FFF790F83A
:10190000C01B0228C4D828688007F7D528686169F9
:1019100020F0F80040EAC10028600DE0C6F8008021
:10192000FFF77EF8074604E0FFF77AF8C01B0228AD
:1019300023D828688007F7D4207800072CD5794869
:10194000A169D9B1C0F80090FFF76AF8074604E032
:10195000FFF766F8C01B02280FD8686A8007F7D522
:1019600071484FF4FA510068B0FBF1F0009000BFED
:101970000098411E0091FAD20EE080E0C0F800808D
:10198000FFF74EF8074604E0FFF74AF8C01B0228AD
:1019900075D8686A8007F7D42078400760D5E86971
:1019A0000027C00008D4E86940F08050E861E86989
:1019B000012700F0805000905C480168C90513D4ED
:1019C0000168834641F480710160FFF729F882467F
:1019D00006E000BFFFF724F8A0EB0A0064284ED809
:1019E000DBF80000C005F5D5E06801280AD008B191
:1019F000052813D0286A20F001002862286A20F008
:101A0000040002E0286A40F001002862E06841F228
:101A1000883B98B1FFF704F882460BE0286A40F053
:101A200004002862EEE700BFFEF7FAFFA0EB0A0110
:101A300059455AD8286A8007F6D50CE0FEF7F0FF22
:101A4000824605E0FEF7ECFFA0EB0A0159454CD8B1
:101A5000286A8007F6D41FB1E86920F08050E86159
:101A6000E06988B36968C1F38101022944D0022882
:101A7000C6F8608004D0FEF7D3FF044638E034E0B7
:101A8000FEF7CEFF074604E0FEF7CAFFC01B0228A0
:101A90002BD828688001F7D4206AB0F5803F05D1A3
:101AA0006868A16820F4003008436860D4E9080140
:101AB0000843696821F4741108436860C6F86090AF
:101AC000FEF7AEFF044606E025E000BFFEF7A8FFE4
:101AD000001B022809D828688001F7D51BE000BF49
:101AE000FEF79EFF001B022802D90320BDE8F88FF5
:101AF00028688001F4D40EE00128F7D06868226AD3
:101B000000F48031914204D1616A00F4701088427F
:101B100001D00120EAE70020E8E7000000100240C1
:101B200000004242800442420C000020007000404D
:101B30007047704770B590F83C20012A26D00124E8
:101B400080F83C40022280F83D2003685A689D6876
:101B500022F070060A6832435A600D4B02689A42BE
:101B600008D0B2F1804F05D00A4B9A4202D00A4BFE
:101B70009A4204D1496825F080031943916080F8A6
:101B80003D40002180F83C10084670BD022070BD29
:101B9000002C0140000400400008004010B5040083
:101BA00003D094F83D0010B107E0012010BD0020E3
:101BB00084F83C00204600F01FF8022084F83D0025
:101BC000211D206801F04EF9012084F8460084F8B8
:101BD0003E0084F83F0084F8400084F8410084F817
:101BE000420084F8430084F8440084F8450084F8F7
:101BF0003D00002010BD000008B501681048B1F19B
:101C0000804F14D00F4A914219D1C16941F00201AD
:101C1000C161C069002200F00200009011461D2041
:101C2000FEF7A6FFBDE808401D20FEF794BFC1697E
:101C300041F00101C161C06900F00100009008BDE0
:101C4000001002400004004090F83D10012901D02E
:101C500001207047022180F83D100168CA6842F0F7
:101C60000102CA6000680B49884208D0B0F1804F79
:101C700005D00949884202D00849884204D18168C8
:101C800001F00701062903D0016841F0010101605C
:101C900000207047002C0140000400400008004074
:101CA00070B5044690F83C000025012817D00126A5
:101CB00084F83C60022084F83D002068826822F0AD
:101CC000770222F47F4282600868502838D00DDC09
:101CD00020284FD005DC90B3102811D14AE0022013
:101CE00070BD302846D040280AD13BE060282FD074
:101CF00070280DD0B0F5805F03D0B0F5005F12D032
:101D0000012584F83D60002084F83C00284670BD21
:101D1000CB68D1E90121206801F0EDF820688168E5
:101D200041F0770109E0CB68D1E90121206801F099
:101D3000E2F82068816841F480418160E1E719E0C0
:101D4000CA684968206801F08BF95021206806E0D4
:101D5000CA684968206801F094F96021206801F0A0
:101D6000D4F8CEE7CA684968206801F079F94021C3
:101D70002068F4E7226801461046F0E770472DE935
:101D8000F04104460068C66805694FF00007A907DE
:101D900013D5B10711D5F91E016101202077206804
:101DA00080698007204602D0FFF7E8FF04E000F0DA
:101DB000A5F8204600F037F92777680716D5700791
:101DC00014D521686FF00400086102202077206894
:101DD000806910F4407F204602D0FFF7CFFF04E077
:101DE00000F08CF8204600F01EF92777280715D55B
:101DF000300713D521686FF00800086104202077B0
:101E00002068C0698007204602D0FFF7B7FF04E0D2
:101E100000F074F8204600F006F92777E80616D59A
:101E2000F00614D521686FF01000086108202077B3
:101E30002068C06910F4407F204602D0FFF79EFF63
:101E400004E000F05BF8204600F0EDF82777E807A3
:101E500008D0F00706D021686FF001000861204625
:101E600000F030F9280608D5300606D521686FF055
:101E7000800008612046FFF75BFE680608D5700603
:101E800006D521686FF040000861204600F024F973
:101E9000A8060AD5B00608D521686FF020000861B1
:101EA0002046BDE8F041FFF744BEBDE8F0810000E8
:101EB00000B585B000210091019102910391006865
:101EC0000B49884211D10B48816941F008018161B9
:101ED0008069694600F0080004900120009002200B
:101EE000019003900448FEF7A5FC05B000BD00007A
:101EF0000004004000100240000C0140704770B523
:101F0000044690F83C0000260D4601280FD0012021
:101F100084F83C006AB1042A1DD0082A2FD00C2A6C
:101F20003FD00126002084F83C00304670BD0220DE
:101F300070BD206800F0F2FF2068816941F008015F
:101F400081612068816921F00401816120688169D3
:101F50002A69114311E0206801F008F820688169BE
:101F600041F4006181612068816921F480618161AF
:101F7000206881692A6941EA02218161D2E72068EB
:101F800001F020F82068C16941F00801C1612068B2
:101F9000C16921F00401C1612068C1692A69114346
:101FA00011E0206801F03AF82068C16941F400614D
:101FB000C1612068C16921F48061C1612068C16983
:101FC0002A6941EA0221C161ACE710B5040003D0DF
:101FD00094F83D0010B107E0012010BD002084F806
:101FE0003C00204600F01EF8022084F83D00211D30
:101FF000206800F037FF012084F8460084F83E0096
:1020000084F83F0084F8400084F8410084F84200DE
:1020100084F8430084F8440084F8450084F83D00C7
:10202000002010BD7047704710B50446022249B128
:1020300004290ED0082913D094F84100012816D0A5
:10204000012010BD94F83E000128F9D184F83E200B
:102050000FE094F83F000128F2D184F83F2008E017
:1020600094F840000128EBD184F8402001E084F886
:1020700041200122206800F031FF0F49206888428A
:1020800003D1426C42F4004242642068884208D086
:10209000B0F1804F05D00949884202D008498842F2
:1020A00004D1816801F00701062903D0016841F0DD
:1020B00001010160002010BD002C0140000400401F
:1020C0000008004000680349884201D1FEF7AEBC19
:1020D0007047000000080040704738B5044690F88B
:1020E0004200202801D0022038BD51B14AB1012060
:1020F000206300206063204601F05CF9216B012918
:1021000001D0012038BD21680A6849680091216822
:102110000C3151E8002F42F0100241E80023002B5F
:10212000F5D138BDF0B4104A90421BD1104F0020B9
:1021300001250E4EA7F180040E4A0BE0356053884E
:1021400017F800C004F803C05B1C03F07F03401CB9
:10215000538080B28842F1D3F0BC80220449024807
:10216000FFF7BBBFF0BC7047480200201000002002
:102170009418002014000020704710F8411F407888
:1021800008437047F8B5016804460868CA684B6997
:1021900010F00F0F4FF0000559D003F0010602F4C4
:1021A0009077374365D0C10705D0D10503D5616C61
:1021B00041F001016164410705D5D90703D0616C85
:1021C00041F002016164810705D5D90703D0616C34
:1021D00041F004016164010707D502F02001314399
:1021E00003D0616C41F008016164616C00293AD050
:1021F000800604D5900602D5204601F01DF820681F
:102200004069616CC0F38010090700D460B32046B8
:1022100000F0DDFF20684069400621D520681430B9
:1022200050E8001F21F0400140E80012002AF5D1DB
:10223000E06BA8B16D494163E06BFEF79FF90028A0
:1022400011D0E06B416B01B0BDE8F0400847830658
:102250000FD593060DD52046BDE8F84000F0ECBF41
:102260002046FFF789FFF8BD2046FFF785FF65642C
:10227000F8BD266B2023012E7CD1C6067AD5D60662
:1022800078D508684868009048694FF00206400613
:1022900040D5E16B086840680004000CE8D0A28DCE
:1022A0008242E5D9E085886920282DD020680C304D
:1022B00050E8001F21F4807140E80012002AF5D197
:1022C0002068143050E8001F21F0010140E800129E
:1022D000002AF5D12068143050E8001F21F0400199
:1022E00040E80012002AF5D184F8423025632068C6
:1022F0000C3050E8001F21F0100140E80012002AC5
:10230000F5D1E06BFEF716F96663A08DE18D401AFA
:1023100081B22AE0A08DE18D401A81B2E08D0028C3
:10232000A6D00029A4D022680C3252E8000F20F475
:10233000907042E80007002FF5D12068143050E873
:10234000002F22F0010240E80027002FF5D184F889
:102350004230256320680C3050E8002F22F0100234
:1023600040E80023002BF5D166632046FFF7DAFE34
:10237000F8BDFFE705062BD5150629D594F84100D1
:102380002128F5D1A068B0F5805F01D12069B0B1F6
:10239000206A411C2162216800784860E08C401E60
:1023A0000004000CE084E3D12068C16821F08001C2
:1023B000C1602068C16841F04001C160D8E7206A6F
:1023C0000088C0F308004860206A801C2062E5E7AE
:1023D0004006CDD55006CBD5CA68204622F0400233
:1023E000CA6084F8413000F0A5F8C1E7D130000898
:1023F00070B5040004D094F84100002510B106E047
:10240000012070BD84F84050204600F023F82420BD
:1024100084F841002068C16821F40051C160204661
:1024200000F06CFF2068016921F49041016120688F
:10243000416921F02A0141612068C16841F40051DD
:10244000C1606564202084F8410084F8420065631F
:10245000002070BDF0B585B00024064600940194BC
:102460000294039400682D49884254D12C48816914
:1024700041F480418161816901F480410491816965
:1024800041F0040181618069264D00F00400049050
:102490004FF40070009002200190032003906946E1
:1024A0002846FEF7C7F92815CDE9000469462846F5
:1024B0000294FEF7BFF91D4D1B488027C5E90004B3
:1024C000C5E902472C616C61AC612846EC61FEF7FE
:1024D0004BF908B1FEF710F8F5636E62134D124820
:1024E0004435143801C5102091C5104845F81049ED
:1024F00044306C61AC61EC61FEF736F908B1FDF770
:10250000FBFFB5630022114625206E62FEF730FB0B
:102510002520FEF720FB05B0F0BD0000003801408B
:1025200000100240000801405800024090020020C4
:10253000704770477047FEE7F0B40023002A18D9AF
:102540000A24302537269C46B4EB107F04D905EBCE
:10255000107701F8137003E006EB107701F81370A1
:10256000000101EB430787F801C05B1CDBB293421B
:10257000EAD3F0BC70470000802202490248FFF70E
:10258000ACBD000094180020480200200EB50024C5
:10259000DFF8D481754EDFF8D8A1671E4FF001092E
:1025A000254602A8394600F07FFD0028F9D19DF8A4
:1025B00008100DF804109DF80000802878D00EDC7B
:1025C00004281FD006DC00281BD001286BD002286D
:1025D00017D111E011287BD01328F9D1BDE0C02814
:1025E00077D004DC812877D08228F1D1A8E0C128F7
:1025F00071D0C228ECD195E0642204215DA002F0E4
:10260000D5FCADE06421012002F04EFC5BA08346C6
:102610006424FDF743FE01462246584602F0C6FCFC
:102620006421002002F040FC6421202002F03CFCE8
:102630006421082002F048FC6421212002F034FCCF
:102640006421306A02F040FC6421222002F02CFC5C
:102650006421002002F038FC6421232002F024FCD5
:102660006421404602F030FC6421402002F01CFC52
:102670006421082002F018FC6421412002F014FCBF
:102680006421022002F010FC6421082002F00CFCFE
:102690006421012002F008FC6421002002F004FC07
:1026A0005EE005E0FFE702F021FC02F09DFC57E050
:1026B000641CE4B2052CFFF474AFDDF8010032496C
:1026C000401CB1FBF0F0404500D94046706047E047
:1026D0003EE017E000E01DE0641CE4B2052CEAD304
:1026E000BDF80310BDF801204FF4806089008142DD
:1026F00000D80846F0609000B060404530D9C6F878
:1027000008802DE0641CE4B2052CD4D3DDF8010070
:10271000306125E0641CE4B2052CCCD3DDF8010067
:1027200070611DE0641CE4B2052CC4D39DF8040064
:10273000C0F38001C0F3C00001B1002070700FE051
:10274000641CE4B2052CB6D3DDF80100706207E02A
:10275000CAF8005086F8009002E0CAF80090357080
:102760000024009501951CE740420F001400002052
:102770001000002031414C53000000004C415F59D3
:10278000555149524900000000A24A040D4808B5BD
:10279000416941F0010141614069002200F00100FE
:1027A000009011460E20FEF7E3F90E20FEF7D3F954
:1027B000002211460F20FEF7DBF9BDE808400F208C
:1027C000FEF7C9B9001002402DE9F04385B000249E
:1027D0002C480094019402940394816941F0100103
:1027E0008161816901F010010491816941F020014A
:1027F0008161816901F020010491816941F0040146
:102800008161816901F004010491816941F008014D
:1028100081618069DFF8708000F008004FF4005596
:102820000490002229464046FEF7F4F8DFF85C9059
:10283000AF00002239464846FEF7ECF80095022624
:1028400001250396CDE9015469464046FDF7F2FFA4
:102850000B208DE8310069464846FDF7EBFF4FF449
:102860007F408DE8310069460948FDF7E3FF009796
:102870000396CDE9015469464846FDF7DBFF05B0F4
:10288000BDE8F08300100240001001400008014044
:10289000000C014010B586B0002417480094019444
:1028A0000294039404944FF080410594016040F237
:1028B0006711C0E9011440F2CF71C0E903148461CB
:1028C000FFF76CF908B1FDF717FE4FF48050009048
:1028D00069460948FFF7E4F908B1FDF70DFE0494D5
:1028E00004A905480594FFF725F9002801D0FDF754
:1028F00003FE06B010BD0000B801002010B58EB078
:1029000000240794089409940A940B941C216846A7
:102910000C94FDF7E2FC1F481D4901604721C0E906
:10292000011440F2E731C0E903148461FFF736F97E
:1029300008B1FDF7E1FD4FF48050079007A9154855
:10294000FFF7AEF908B1FDF7D7FD1248FFF73DFBE1
:1029500008B1FDF7D1FD0B940BA90E480C94FFF7BD
:10296000E9F808B1FDF7C8FD602000904FF4FA7057
:10297000CDE901040822694606480494FFF7BFFA2E
:1029800008B1FDF7B9FD0348FFF792FA0EB010BD8C
:1029900000040040000200200C4810B50A49016004
:1029A0004FF4E1314160002181600C22C160C0E937
:1029B00004128161C161FFF71BFD002803D0BDE84F
:1029C0001040FDF799BD10BD0038014048020020BD
:1029D00010B500220F49104801F008F908B1FDF7C1
:1029E0008BFD0E490C4801F0F6FA08B1FDF784FDA5
:1029F0000B49094800F029FE08B1FDF77DFD0648A6
:102A000001F09AFB002803D0BDE81040FDF774BD2B
:102A100010BD000044000020141900208001002097
:102A200094000020FEE7FEE72DE9F84F044640F64B
:102A30008F7B48F60F794FF480684FF0000ABDE1B4
:102A4000B0F8441011F00F0539D030F8256031048A
:102A50007ED530F8251001EA0B0141F0800120F805
:102A6000251005EB850004EBC00797F85C0107F51E
:102A7000A87700286DD0F87802286BD039782268C2
:102A800032F8210048F68F73184048F2C00318430B
:102A900022F821003978206830F82120B0F8503031
:102AA00052047DD5022202EBC1015A1808EB420103
:102AB000415A8905890D009173D03A89DDE0C90634
:102AC0002BD4018801EA090141F40041018020680A
:102AD00004F11005B0F85030217C022202EBC10154
:102AE0005A1808EB4201405AC0F30900E062616ADB
:102AF0000844606200212046FEF78BF8607B0028C6
:102B00009DD0A86900289AD1607B216840F08000A0
:102B1000A1F84C0084F80DA050E1018804F5A875D7
:102B20000A0521D5B0F850202B78062101EBC3010E
:102B30000A4408EB4201405A04F52671C0F3090328
:102B4000EB61EA88206802F03BF92068018802E026
:102B5000AEE06EE07EE001EA0B0141F08001018011
:102B60002046FEF7B1FC29E10904D5D5018801EA28
:102B70000B0141F0800101802068B0F850202B78D3
:102B8000062101EBC3010A4408EB4201405A8305C8
:102B90009B0DEB6110D0696971B1EA88206801E092
:102BA0005FE05DE002F00CF9E9696869084468617A
:102BB00000212046FEF736F8216808880205ABD4CC
:102BC000C0F301300328A7D0B1F850000844B0F892
:102BD0000C14C1F30901A0F80C142A6900F20C408E
:102BE0003E2A09D95109D20600D1491E02884FF464
:102BF000004343EA812109E0B2B15108D20700D075
:102C0000491C02884FF6FF7303EA81210A430280C0
:102C1000216808884BF68F72104080F4405048F2CB
:102C2000800210430880C9E0018841F4004101801E
:102C3000EEE72068B0F850203B78062101EBC30195
:102C40000A4408EB4201415A8905890D009118D0C8
:102C5000FA8812E0324639462046FEF73FF80090E7
:102C60000FE0062202EBC1015A1808EB4201415A5B
:102C70008905890D009104D07A897969009B02F059
:102C80009FF8F86900990844F86179690098084448
:102C90007861B86918B139690098814204D93978E6
:102CA0002046FDF7BFFF03E03946206801F0FEFD36
:102CB00030062ED505EB850004EBC001206830F806
:102CC000252002EA090242F4004220F82520C87CAF
:102CD000103101281ED0F0056CD42068B0F85030B7
:102CE0000D78022202EBC5021A4408EB4202805A18
:102CF0008A69C0F30900824255D9121A8A6154D0F8
:102D00004A6902444A61CA691044C861206801F0F6
:102D1000CDFD53E0C1F818A0087B524608B37006F9
:102D200020D5487810B1012812D03AE02068B0F8D8
:102D3000502010440A7800EB0210B0F80424C2F3CB
:102D40000902A0F80424B0F8042442F4004206E08A
:102D50002068B0F8503018440B7800EB0310A0F84E
:102D600004241EE04B78206813B1012B11D018E029
:102D7000B0F8502010440A7800EB0210B0F80C2490
:102D8000C2F30902A0F80C24B0F80C2442F400426B
:102D900005E0B0F8503018440B7800EB0310A0F8B1
:102DA0000C24097802E0C1F818A0E9B22046FDF72A
:102DB00030FF03E032462046FEF703F82068B0F803
:102DC000441009043FF53CAE0020BDE8F88F704781
:102DD0007047704730B593B028216846FDF77DFAFB
:102DE00014210AA8FDF779FA002401200F94109409
:102DF0001194010412948DE8130004900005CDE9AC
:102E00000810022507956846FEF702FD08B172B664
:102E1000FEE70F20CDE90A054FF48060CDE90C40B4
:102E200001210AA80E94FEF7F7FB08B172B6FEE77F
:102E300010200F90800412900FA8FEF777FB002857
:102E400001D072B6FEE713B030BD70470148FEF7FF
:102E500096BF0000000200200148FEF790BF00006E
:102E600018030020F0B50268194B1A4C1A4D4FF0A8
:102E70008047984205D0B84203D0A04201D0A84272
:102E800003D122F070064A683243984205D0B84216
:102E900003D0A04201D0A84203D122F44074CA68F2
:102EA00022434C6922F08002224302608A68C26297
:102EB0000A688262984201D1096901630121416176
:102EC0000169C90703D0016921F001010161F0BD69
:102ED000002C0140000400400008004010B501F043
:102EE0001F030121046A99408C430462016A9A40DD
:102EF0001143016210BD10B5846842EA032224F434
:102F00007F440A432243826010BD826822F070022F
:102F10000A4342F0070181607047000030B5036A40
:102F2000026A22F0010202624268846924F0730599
:102F30000C682C4323F002058B682B430A4DA842F2
:102F40000BD123F00805CB6822F440722B434D6966
:102F500023F0040315438A692A4342608461496867
:102F60004163036230BD0000002C014030B5026AAD
:102F7000036A23F010030362436884690D6824F434
:102F8000E64444EA05248D6822F0200242EA051254
:102F90000B4DA8420ED1CD6822F0800242EA051204
:102FA0004D6923F4406343EA85038D6922F04002B2
:102FB00043EA85034360846149688163026230BDEE
:102FC000002C014030B5036A026A22F4807202626A
:102FD0004268C46923F4007324F073050C682C4321
:102FE0008D6843EA05230C4DA8420ED1CD6823F429
:102FF000006343EA05234D6922F4405242EA051278
:103000008D6923F4806342EA05124260C461496815
:10301000C163036230BD0000002C014030B5046A7A
:10302000026A22F4805202624268C3690D6823F486
:10303000E64343EA05238D6824F4005444EA05344A
:10304000064DA84204D14D6922F4804242EA85121D
:103050004260C36149680164046230BD002C0140D4
:1030600010B5036A046A24F001040462846924F040
:10307000F00444EA021423F00A020A438461026263
:1030800010BD10B5036A046A24F010040462846958
:1030900023F0A00324F4704444EA023243EA01110D
:1030A0008261016210BD000070B50C4605462946DC
:1030B0000648FDF7C7F9002807D0641E03D3012096
:1030C00001F0E4FEF3E74FF0FF3070BDC4030020D1
:1030D00010B5406A0021C185C184FFF74DF810BDCD
:1030E00070B5446A2068406994F84110C0F3C0107C
:1030F0000025212904D118B1E584204600F08EF87E
:103100002068406994F84210C0F38010222904D14D
:1031100018B1E585204600F05AF8606C40F01000C8
:1031200060642046FFF728F870BD10B50146406A7C
:10313000096809684FF0000289062ED4C28501682B
:103140000C3151E8003F23F4807341E80034002C37
:10315000F5D10168143151E8003F23F0010341E843
:103160000034002CF5D10168143151E8003F23F000
:10317000400341E80034002CF5D1202180F84210B2
:10318000016B012909D101680C3151E8003F23F09E
:10319000100341E80034002CF5D14263016B012992
:1031A00002D0FFF7C5F910BD818DFEF7BBFF10BD42
:1031B00010B5406A01214163016B012902D0FFF77C
:1031C000B8F910BD818D4908FEF7ACFF10BD01684C
:1031D0000C3151E8002F22F4907241E80023002BBB
:1031E000F5D10168143151E8002F22F0010241E8C5
:1031F0000023002BF5D1016B012909D101680C31A5
:1032000051E8002F22F0100241E80023002BF5D1F5
:10321000202180F8421000210163704701680C31C1
:1032200051E8002F22F0C00241E80023002BF5D125
:10323000202180F84110704708B590F842102229EB
:1032400001D0022008BD82684FF480539A4201D118
:10325000016921B1816A9A421BD04AB10AE0026831
:10326000816A5268C2F308020A80816A891C08E0F8
:10327000026972B10268526802F07F020A70816AC4
:10328000491C8162C18D491E0904090CC18503D006
:103290001BE002685268F1E70168CA6822F0200268
:1032A000CA600168CA6822F48072CA6001684A690B
:1032B00022F001024A61202180F84210002141637E
:1032C000026B012A03D0FFF733F9002008BD016328
:1032D00001680C3151E8002F22F0100241E8002370
:1032E000002BF5D101680A68D20602D50A68496840
:1032F0000091818DFEF716FFE7E7000070B50446E8
:1033000000680169E26821F44051114301612169BB
:10331000A0680843616908432168CA6841F20C63E8
:103320009A430243CA6020684169A26921F440714E
:10333000114341611E492068884202D1FEF732FAEA
:1033400001E0FEF71FFA00EBC00101EB001260681C
:1033500064218000B2FBF0F3B3FBF1F36FF01806C9
:103360007343B2FBF0F5B2FBF0F605EB83053223B5
:1033700003EB0515B5FBF1F5B6FBF1F605F0F0052D
:1033800005EB0615B2FBF0F6B2FBF0F0B0FBF1F086
:103390006FF01802504306EB800003EB0010B0FB07
:1033A000F1F0216800F00F002844886070BD000033
:1033B0000038014038B581620446828500201346FA
:1033C0006064222284F84220E56B1B4AAA62E56B06
:1033D0001A4AEA62E56B1A4A2A63E26B50630A46AC
:1033E0002168E06B091DFDF7EDF920680168406870
:1033F0000090206948B120680C3050E8001F41F46B
:10340000807140E80012002AF5D12068143050E89D
:10341000001F41F0010140E80012002AF5D12068A8
:10342000143050E8001F41F0400140E80012002A2B
:10343000F5D1002038BD00002B310008B131000863
:10344000E13000080148FEF79DBE00004802002060
:1034500070B5D0F8B822D0F8C052002A1BD001EBCA
:10346000810C00EB8C030026DC6954B105EBCC0C1D
:10347000DCF820C0B4FBFCF50CFB154CBCF1000FD4
:1034800003D0C2F81462002070BDDE6100231A462A
:1034900000F084FDF7E7022070BD70B50546D5F851
:1034A000B842284600F07AFCC4F80C02D5F8B802FD
:1034B00048B1D5F8BC12D4F80402CA6804F5037107
:1034C0009047002070BD022070BD70B504460026F4
:1034D0008121204600F0A9FB0025E562012120465C
:1034E00000F0A3FBC4F86C518221204600F09DFB44
:1034F0002564D4F8B80248B1D4F8BC0240688047CB
:10350000D4F8B80200F08AFFC4F8B852304670BD53
:1035100010B5D0F8B842D0F8BC1200290BD094F8FE
:103520000002FF2807D08B6894F8012221469847B3
:10353000FF2084F80002002010BD00000A21018055
:1035400000487047A80000204321018000487047D0
:10355000F80000204321018000487047B40000209B
:1035600043210180004870473C01002070B50446AB
:103570000026207C0125002831D040230222812111
:10358000204600F061FCE562402302220121204632
:1035900000F05AFCC4F86C51082303228221204613
:1035A00000F052FC25644FF4077000F039FFC4F8B6
:1035B000B80230B30546D4F8BC020068804700204A
:1035C000C5F81402C5F81802207CE0B1402301219F
:1035D0002046D5F8042200F043FC304670BD4FF47D
:1035E000007302228121204600F02EFCE5624FF498
:1035F000007302220121204600F026FCC4F86C5121
:10360000CAE70126E9E74FF4007301212046D5F807
:10361000042200F025FCE0E710B5D0F8B81200292C
:1036200011D0027C3AB1D1F804224023012100F0EC
:1036300017FC002010BDD1F804224FF400730121C3
:1036400000F00EFCF5E7022010BD02460220002922
:1036500002D0C2F8BC1200207047D0F8B802C0F8FF
:10366000041200207047D0F8B802C0F80812C0F861
:10367000102200207047F0B583B005460C46D5F8FF
:10368000B8720020029001900026207810F06001AE
:103690002ED0202907D02146284600F0A5F8022682
:1036A00003B03046F0BDE288D2B110F0800F0BD0ED
:1036B000D5F8BC1260788B6839469847E28839465D
:1036C000284600F0B7F8EBE7607887F80002A079A9
:1036D00087F80102E2883946284600F091F8DFE7D2
:1036E000D5F8BC12607800228B6821469847D7E74E
:1036F000607848B10A2817D00B2825D021462846E3
:1037000000F072F80226CBE795F89C02032805D05A
:103710002146284600F068F80226C1E7022201A9E6
:10372000284600F087F8BBE795F89C02032805D0EF
:103730002146284600F058F80226B1E7012202A9E6
:10374000284600F077F8ABE795F89C020328A7D04D
:103750002146284600F048F80226A1E710B5D0F827
:10376000B812002914D0D1F814220AB1012010BDDA
:103770000122C1F81422D1F810220263B1F81022FC
:1037800093B2D1F80822812100F008FC002010BD7E
:10379000022010BD10B5D0F8B42252689047002026
:1037A00010BD90F89C22012A05D0022A03D0032ADA
:1037B00001D000F019B84988012904D10021C0F8CE
:1037C000A41200F044B8704710B513460A46002111
:1037D00000F046FB002010BD10B513460A4600213C
:1037E00000F0DCFB002010BD10B50446802120460F
:1037F00000F0B9FB2046BDE81040002100F0B3BB4B
:1038000010B50323C0F89432C0F85C21C0F86021E1
:1038100013460A46002100F023FB002010BD10B51E
:103820000521C0F8941200231A46194600F018FB2F
:10383000002010BD10B50223C0F89432C2610262AC
:1038400013460A46002100F0A9FB002010BD10B568
:103850000421C0F8941200231A46194600F09EFB7A
:10386000002010BD10B5002806D00A46054906A064
:1038700000F088F9034810BD0A46024902A000F092
:1038800081F9F7E7D81B002043444320436F6E665D
:10389000696700001220088000487047640000201B
:1038A00010B5002806D00A46054906A000F06AF9BE
:1038B000034810BD0A46024902A000F063F9F7E789
:1038C000D81B002043444320496E746572666163CF
:1038D0006500000004200880004870476000002058
:1038E00010B50A46024903A000F04CF9004810BD8B
:1038F000D81B002053544D6963726F656C65637407
:10390000726F6E696373000010B5002806D00A4616
:10391000054906A000F036F9034810BD0A460249E1
:1039200002A000F02FF9F7E7D81B002053544D33C5
:1039300032205669727475616C20436F6D506F72DE
:103940007400000010B51A200880FCF7D7FD01486C
:1039500010BD000078000020CA88012A01D0FFF7BE
:1039600043BF90F89C22012A05D0022A03D0032AE3
:1039700008D0FFF739BF00218160012200F1080162
:10398000FFF758BF0122011DFFF754BF2DE9F8438F
:1039900004460F4600200090002600257888010A82
:1039A000082970D2DFE801F0AB040C22ABAB8B9A94
:1039B000D4F8B012207C0A68694690470646A3E016
:1039C000207C4FF0020840B1D4F8B402C16A6846C6
:1039D0008847064686F8018096E0D4F8B402816AEA
:1039E00068468847064686F801808DE0C0B2062802
:1039F0005FD2DFE800F0031221303F4FD4F8B0026D
:103A0000426822B1207C6946904706467CE03946F0
:103A10002046FFF7E9FE012576E0D4F8B00282687F
:103A200022B1207C6946904706466DE03946204623
:103A3000FFF7DAFE012567E0D4F8B002C26822B1D0
:103A4000207C6946904706465EE039462046FFF7EF
:103A5000CBFE012558E0D4F8B002026922B1207CE7
:103A60006946904706464FE039462046FFF7BCFEC0
:103A7000012549E0D4F8B00242692AB1207C6946A8
:103A80009047064640E03AE039462046FFF7ACFE54
:103A9000012539E0D4F8B002826922B1207C694660
:103AA0009047064630E039462046FFF79DFE012547
:103AB0002AE039462046FFF797FE012524E0207CC6
:103AC00028B139462046FFF78FFE01251CE0D4F8C7
:103AD000B402416B68468847064615E0207C28B151
:103AE00039462046FFF780FE01250DE0D4F8B402E8
:103AF000016B6846884706460721717004E0394625
:103B00002046FFF771FE0125002D12D1BDF80000FF
:103B100048B1FA883AB1824200D902460092314651
:103B20002046FFF787FEF888002802D12046FFF7DD
:103B30008EFEBDE8F88300210278002A05D0491CDA
:103B4000C9B2401C0278002AF9D10846704790F8A3
:103B50009C22012A05D0022A03D0032A01D0FFF7B4
:103B600043BECA88022A01D0FFF73EBE0121C160D0
:103B7000D0F8A41209B10321C160022200F10C01A6
:103B8000FFF758BE70B504460D461646002C1AD0F5
:103B90002046FFF7D0FF022101EB40003080307853
:103BA0002870032102206970217800290BD000229F
:103BB00014F8013B411CC9B22B54481CC0B26A54D2
:103BC00021780029F4D170BD01460020002906D0DB
:103BD000012905D0022905D0032905D0022070470C
:103BE00002207047012070470220704710B500285E
:103BF00010D0D0F8B43213B10023C0F8B43209B1F8
:103C0000C0F8B012012180F89C12027000F0CAF8CE
:103C1000002010BD022010BD10B5D0F8C002FDF785
:103C200030F8BDE81040FFF7CFBF10B5D0F8C002A4
:103C3000FDF702F8BDE81040FFF7C6BF70B50446B7
:103C40009446002909D0D4F8B40242691AB194F814
:103C50009C02032859D0022070BD04F11400D4F84E
:103C600094120025022904D0042940D000293ED016
:103C700041E0C36801698B420DD9591AC1608AB20B
:103C800061462046FFF7A8FD00231A461946204644
:103C900000F0E6F82FE08068B0FBF1F201FB1202C1
:103CA0009AB9884211D3D4F8981288420DD20022D2
:103CB00011462046FFF790FDC4F8985200231A469B
:103CC0001946204600F0CCF815E0D4F8B402C168DB
:103CD00029B194F89C02032801D12046884780210D
:103CE000204600F040F92046FFF799FD03E08021CF
:103CF000204600F038F994F8A002012807D12046A8
:103D000000F072F984F8A05201E0204690470020AC
:103D100070BD10B5044608461146002809D0D4F8F5
:103D2000B4128A691AB194F89C12032931D0022086
:103D300010BD04F5AA70D4F89432032B02D0052BE1
:103D40001FD029E0D0F810C0C36863450BD9A3EB9E
:103D50000C03C3600069834200D303469AB2204635
:103D6000FFF732FD18E0D4F8B402016929B194F8E4
:103D70009C02032801D1204688472046FFF767FDB3
:103D80000AE00020C4F894020021204600F0EBF87D
:103D900002E0014620469047002010BDD0F8C00246
:103DA000FDF7ABB910B504461D48C0F8D442C4F8BD
:103DB000C0021C49016008210171022181710021AA
:103DC0008172C1720173FDF7CDFA08B1FCF794FB63
:103DD000002218231146D4F8C002FCF7FBFE58233A
:103DE00000228021D4F8C002FCF7F4FEC023002298
:103DF0008121D4F8C002FCF7EDFE4FF48873002255
:103E00000121D4F8C002FCF7E5FE4FF480730022D4
:103E10008221D4F8C002FCF7DDFE002010BD0000B6
:103E2000F8270020005C004011F0800F01F07F01B6
:103E3000D0F8C00201EB810100EBC10001D0807C11
:103E4000704790F85201704710B59C461346D0F861
:103E5000C0026246FDF75AF9BDE81040FFF7B4BE54
:103E600010B5D0F8C002FDF77DF9BDE81040FFF7AE
:103E7000ABBE70B504460022402311462046FFF732
:103E8000E3FF0125C4F858514026C4F8646140237B
:103E9000002280212046FFF7D7FFA561666284F8E3
:103EA0009C520020C4F894026060C4F8A402D4F8C4
:103EB000B80228B1D4F8B4020021426820469047E5
:103EC000002070BD90F89C12042903D190F89D1237
:103ED00080F89C120020704710B590F89C120329BE
:103EE00004D1D0F8B412C96901B18847002010BDCF
:103EF00001740020704710B5D0F8C002FDF7D1FA68
:103F0000BDE81040FFF760BE10B5044604F52A7006
:103F100000F04DF80120C4F89402B4F8AE02C4F8E1
:103F2000980294F8A81211F01F000AD001280ED0B0
:103F3000022812D001F08001204600F014F8002081
:103F400010BD04F52A71204600F0FBF8F7E704F5F0
:103F50002A71204600F02DFAF1E704F52A71204677
:103F600000F02FF9EBE710B5D0F8C002FDF711F91A
:103F7000BDE81040FFF728BE10B5D0F8C002FDF72D
:103F8000AAFABDE81040FFF71FBE90F89C1280F817
:103F90009D12042180F89C120020704710B5D0F8C3
:103FA000C002FDF72EF9BDE81040FFF70DBE0A78FC
:103FB00002704A7842708A78CB7802EB0322428002
:103FC0000A794B7902EB032282808A79C97902EB64
:103FD0000121C180704702460020002902D0C2F8AA
:103FE000B4127047022070470020704770B5044635
:103FF0008888002821D1C888F8B9488880281CD230
:1040000000F07F0594F89C0203280DD084F89E529E
:1040100029462046FFF76FFF2046FFF718FC45B101
:10402000022084F89C0270BD2046BDE87040FFF776
:10403000DBBB012084F89C0270BD2046BDE87040C7
:10404000FFF7D2BB10B50224D0F8B422002A03D067
:104050001268904700B90024204610BD70B5044690
:104060000D46304EA9783170012905D929462046E0
:10407000BDE87040FFF7B8BB94F89C0202280BD053
:10408000032823D029462046FFF7AEFB317820468F
:10409000BDE87040FFF77EBB99B16160032084F8F2
:1040A0009C022046FFF7CEFF022804D02046BDE840
:1040B0007040FFF7CCBB29462046BDE87040FFF7B3
:1040C00093BB2046BDE87040FFF7C1BB91B160686B
:1040D000884221D0C1B22046FFF75CFB3178616095
:1040E0002046FFF7AFFF022810D02046BDE8704001
:1040F000FFF7ADBB022084F89C0261602046FFF709
:1041000049FB2046BDE87040FFF7A1BB2946204689
:10411000BDE87040FFF768BB2046BDE87040FFF780
:1041200096BB0000A40000204988012903D1C0F8F3
:10413000A412FFF78CBB704710B5FFF71DFF0020DE
:1041400010BD10B503460024087810F060020ED0B0
:10415000202A06D0402A04D01846FFF745FB204607
:1041600010BDD3F8B402826818469047F7E7487844
:104170000A2822D2DFE800F0151D211921090521A6
:10418000110D1846FFF702FCE9E71846FFF72EFF6E
:10419000E5E71846FFF762FFE1E71846FFF7DCFBAB
:1041A000DDE71846FFF7D3FCD9E71846FFF7BCFF59
:1041B000D5E71846FFF7F5FAD1E71846FFF714FBE5
:1041C000CDE72DE9F0410446084600260179037841
:1041D00013F0600211D0202A08D0402A06D00146F0
:1041E0002046FFF701FB3046BDE8F081D4F8B41259
:1041F0008A68014620469047F5E703F06002202ACE
:104200000BD04278002A61D0012A37D0032A0CD083
:1042100001462046FFF7E8FAE5E7D4F8B4128A68C9
:1042200001462046BDE8F041104794F89C22022A3E
:1042300006D0032A14D001462046FFF7D5FAD2E76C
:1042400049B1802907D02046FFF78DFE8021204606
:10425000FFF789FEC7E701462046FFF7C5FAC2E728
:1042600042883AB931B1802904D0C08810B92046BB
:10427000FFF779FE2046FFF7EAFAB4E794F89C22AC
:10428000022A06D0032A14D001462046FFF7ACFAD2
:10429000A9E749B1802907D02046FFF764FE8021B5
:1042A0002046FFF760FE9EE701462046FFF79CFA96
:1042B00099E74088002896D111F07F0F02D0204660
:1042C000FFF7AAFC2046FFF7C2FA8CE794F89C227D
:1042D0000027022A06D0032A26D001462046FFF7EF
:1042E00083FA80E731B1802904D001462046FFF7E8
:1042F0007BFA78E711F0800F08D001F07F0000EB27
:10430000800004EB800000F1140107E001F07F0061
:1043100000EB800004EB800000F5AA710F60022220
:104320002046FFF787FA5EE711F0800F0CD001F00E
:104330000F0202EB820204EB820292696AB9014623
:104340002046FFF751FA4EE701F00F0202EB82021E
:1043500004EB8202D2F858215AB111F0800F0DD02F
:1043600001F07F0000EB800004EB800000F11405F9
:104370000CE001462046FFF737FA34E701F07F00F2
:1043800000EB800004EB800000F5AA7541B18029A4
:1043900006D02046FFF748FD20B10120286002E04A
:1043A0002F6000E02F60022229462046FFF742FAE4
:1043B00019E770B505460C46207810F0600209D068
:1043C000202A07D0402A05D021462846FFF70CFABC
:1043D000002070BD95F89C22012A08D0022A06D040
:1043E000032A04D021462846FFF7FEF9F0E720799A
:1043F00001280ED8D5F8B402214682682846904795
:10440000E1880029E4D10028E2D12846FFF71FFA0D
:10441000DEE721462846FFF7E7F9D9E770470000B5
:1044200000487047D82500202DE9F0470C78002679
:1044300030F8243048F68F121340CA78002A78D01A
:10444000012A7CD0022A02D0032A75D0012648F224
:104450008002134320F824300D7830F8253048F6D8
:104460008F7423402B43134320F825300D7B48F2F3
:10447000C00948F6BF734CF2800A4BF68F77EDB354
:10448000CD7891F800C0022D30F82C507DD048F640
:104490008F6805EA0805154320F82C50B0F85050F5
:1044A00091F800C0054405EB0C15B1F808C02CF0DC
:1044B000010CA5F800C4B0F8505091F800C00544B4
:1044C00005EB0C15B1F80AC02CF0010CA5F808C4D6
:1044D0004D78002D7ED00D7830F825C05FEA4C4C29
:1044E00007D530F825C00CEA040C4CEA0A0C20F879
:1044F00025C091F800C030F82C5000E022E06D0695
:1045000006D530F82C50254045EA090520F82C50F6
:10451000CC780D78012C30F8254004EA03047CD0D7
:1045200084F02003134320F82530C1E001E006E0C9
:1045300002E043F400738AE743F4C06387E743F47F
:10454000806384E74D784DB3B0F850500F78054440
:1045500005EB0715CF8827F00107A5F800740F7841
:1045600030F827506D0606D530F82750254045EA2B
:10457000090520F82750CC78012C07D00C7830F8AA
:104580002410194081F0200104E064E00C7830F838
:1045900024101940114320F8241090E0B0F8503056
:1045A0000D78034403EB0513CD8825F00105A3F82E
:1045B0000854B0F850300D78034403EB0513B3F8FA
:1045C0000C54C5F30905A3F80C540D6903F20C4310
:1045D0003E2D00E045E00BD94FEA551CED0601D118
:1045E000ACF1010C1D884FF4004848EA8C2C0BE01C
:1045F00035B34FEA550CED0701D00CF1010C1D88C5
:104600004FF6FF7808EA8C2C45EA0C051D800D78E2
:1046100030F825305B0408D500E046E030F825305E
:10462000234043EA0A0320F82530097861B130F8C5
:1046300021303B4083F40053134320F821303EE007
:104640001D8845F40045E1E70188394081F4405177
:104650001143018033E0254048F2801845EA0805FF
:104660001AE791F800C030F82C506D0406D530F8E8
:104670002C50254045EA0A0520F82C5091F800C03E
:1046800030F82C506D0606D530F82C50254045EA00
:10469000090520F82C500D7830F825403C4084F472
:1046A0004054144320F8254070E7144320F8254077
:1046B0000B7830F823103940114320F8231030468E
:1046C000BDE8F087002070472DE9F04391F80C8099
:1046D0004F780A7848F6BF7C4BF68F7948F2800312
:1046E00048F2C0054CF2800648F68F74B8F1000F0E
:1046F00028D0002F30F822704FEA474748D0002FCB
:1047000005DA30F822702740374320F822700A7803
:1047100030F822707F0605D530F8227027402F43ED
:1047200020F822700D7830F825202240324320F8FE
:1047300025200C7830F8242002EA0C021A4320F8D5
:1047400024201AE07FB130F82260760605D530F8D3
:10475000226026402E4320F822600A7830F822108A
:1047600001EA0C010EE030F822506D0405D530F856
:1047700022502540354320F822500A7830F8221084
:1047800001EA0901194320F822100020BDE8F08356
:10479000002F05DA30F822702740374320F82270C6
:1047A0000A7830F82260760605D530F82260264077
:1047B0002E4320F822600E7830F8262022402A432B
:1047C00020F826200C7830F8242002EA09021A4347
:1047D00020F82420C1E70020704700207047012105
:1047E00020F8401F00210180818001820846704727
:1047F00030F8401F21F43F41018000207047002025
:10480000704730B50A7BB2BB4A7848F68F7548F2DC
:104810008004C2B10B7830F82320520607D530F857
:1048200023202A4048F2C0052A4320F82320CA78D2
:10483000012A20D00A7830F8221048F6BF731940B8
:1048400081F0200114E00A7830F822305B0407D5AB
:1048500030F822302B404CF280052B4320F82230D8
:104860000A7830F822104BF68F73194081F44051CA
:10487000214320F82210002030BD10B54A78097875
:10488000002A48F2800330F8212005D048F6BF7492
:10489000224082F0100204E04BF68F74224082F432
:1048A00080521A4320F82120002010BD2DE9F04746
:1048B0000D464B78097B04464FF0000948F68F728D
:1048C00048F2800A4FF400474FF6FF78012B09D0D9
:1048D00000296FD0E87802286DD001286CD0012023
:1048E000BDE8F087AE692869864200D9064691B1D5
:1048F000E97802291ED0286A801B2862287834F8BB
:1049000020104906B4F85010214401EB001073D573
:10491000A0F80C6416E1B3B2EA882046696900F099
:104920006DFAB4F850002978204400EB0110A0F88B
:1049300004640DE1296A814277D9297834F821008D
:10494000104048F28012104324F82100286A801B8E
:104950002862287834F820104906697871D511B199
:1049600001292AD030E0B4F85010214401EB0010A6
:10497000B0F80C14C1F30901A0F80C1400F20C40BB
:104980003E2E07D97109F20600D1491E028847EA76
:10499000812107E04EB17108F20700D0491C02885E
:1049A00008EA81210A4302800EE0018841F40041B7
:1049B000018009E0F1E020E195E1B4F850201119FF
:1049C00001EB0010A0F80C646A89B3B22046696953
:1049D00000F014FA6869304468612969286A8842DD
:1049E00002D9801B286202E00646C5F8209068784C
:1049F00018B101282BD032E02FE0B4F8500029780C
:104A0000204400EB0110B0F80414C1F30901A0F830
:104A1000041400F204403E2E08D97109F20600D1B8
:104A2000491E028847EA812108E0A1E056B17108D9
:104A3000F20700D0491C028808EA81210A4302805B
:104A40000DE00EE0018841F40041018007E0B4F878
:104A500050002978204400EB0110A0F804642A8952
:104A600071E011B1012927D02DE0B4F85010214494
:104A700001EB0010B0F80414C1F30901A0F804140C
:104A800000F204403E2E07D97109F20600D1491EFA
:104A9000028847EA812107E04EB17108F20700D091
:104AA000491C028808EA81210A4302800BE0018840
:104AB00041F40041018006E0B4F85010214401EBBC
:104AC0000010A0F804642A89B3B22046696900F096
:104AD00095F96869304468612969286A884202D971
:104AE000801B286202E00646C5F82090687810B165
:104AF000012836D026E0B4F850002978204400EB95
:104B00000110B0F80C14C1F30901A0F80C1400F264
:104B10000C403E2E07D97109F20600D1491E0288C9
:104B200047EA812107E04EB17108F20700D0491C25
:104B3000028808EA81210A43028003E0018841F4E7
:104B4000004101806A89B3B22046696900F056F9D4
:104B5000297834F8210048F6BF72104080F0300008
:104B60000FE1B4F850100819297800EB0110CFE6D6
:104B70002A7834F8220048F68F63184040EA0A0089
:104B800024F82200B4F850002A78204400EB0210E8
:104B90008BB2A0F804342A89D6E7A9692869814232
:104BA00002D9091AA96102E00846C5F81890B4F8BC
:104BB00050102A78214401EB0211B1F80C24C2F301
:104BC0000902A1F80C2401F20C413E287DD94209CA
:104BD000C00600D1521E088847EA82220AE00888EF
:104BE00040F4004007E04208C00700D0521C08888B
:104BF00008EA822210430880BBE033BBB4F85000BF
:104C00002978204400EB0110B0F80414C1F3090125
:104C1000A0F80414296900F204403E2907D94B0981
:104C2000C90600D15B1E018847EA832307E041B132
:104C30004B08C90700D05B1C018808EA832319438D
:104C400002E0018841F400410180687810B1012838
:104C500028D030E0B4F850002978204400EB01104F
:104C6000B0F80C14C1F30901A0F80C14296900F282
:104C70000C403E2907D94B09C90600D15B1E0188AB
:104C800047EA832307E041B14B08C90700D05B1C0A
:104C9000018808EA8323194302E0018841F40041B6
:104CA000018008E0B4F850100819297800EB0110D1
:104CB000298AA0F80C14E869C0B3297834F82100D7
:104CC000430401D5430605D400E046E044F2400326
:104CD00018424ED134F82100104048F2C00210436F
:104CE00024F8210045E0A9692869814202D9091AFE
:104CF000A96102E00846C5F8189013BBB4F850103B
:104D00002A78214401EB0211B1F80424C2F309020C
:104D1000A1F8042401F204413E2808D94209C3063F
:104D200000D1521E0B8847EA822208E021E078B1C8
:104D30004208C30700D0521C0B8808EA82221343A2
:104D40000B80697800293FF42EAF012909D010E0CB
:104D50000A8842F400420A80F3E700287FF443AF58
:104D60003DE7B4F8502011192A7801EB0211A1F89F
:104D70000C04297834F821004BF68F72104080F42F
:104D8000405040EA0A0024F821000020A8E5002154
:104D9000A0F844104FF43F41A0F8401000207047A5
:104DA0000148FCF745BA0000F82700200148FCF74D
:104DB0003FBA0000F8270020B0F844007047000018
:104DC00010B500EB42005C0800F5806009D000BF20
:104DD00030F8042B01F8012B120A01F8012B641E94
:104DE000F6D1DA0701D00088087010BD00207047A6
:104DF00011B98021A0F84C100020704710B55B1C41
:104E000000EB42005B0800F5806009D011F8012B2F
:104E100011F8014B42EA042220F8042B5B1EF5D165
:104E200010BDFEE70907090E002804DB00F1E020B1
:104E300080F80014704700F00F0000F1E02080F8C7
:104E4000141D7047FBF7FAFDFDF7C4FFFDF7BCFC2E
:104E5000FDF79CFCFDF7A0FDFDF71CFDFDF74EFDE9
:104E6000FDF7B6FD064A64210648FBF7E5FAFDF7B3
:104E700083FB08210448FDF7D7F8FDF787FBF8E727
:104E800060030020C40300200002002070B5054626
:104E900000244FF47A7603E0304600F089F8641C71
:104EA000AC42F9DB70BD000013B50C460548FDF7B8
:104EB00064F92128FAD022460121684600F02AF937
:104EC0001CBD00004802002008B5020E8DF800202D
:104ED000020C8DF80120020A8DF802208DF80300E3
:104EE0000A460421684600F015F908BD70B5134C58
:104EF00013496068B1FBF0F0E1684843A0621249D1
:104F0000104D00204FF480660860E061FBF7EEFA78
:104F100031460E48FBF7E1F9607838B1206928B1D5
:104F200042F210710220401C8842FCDB2888FBF70B
:104F30006BF9BDE87040FBF7DCBA000014000020FC
:104F400040420F00080C0140100000201404002013
:104F50002DE9F05F0025994693460F4682462E467E
:104F6000104CDFF844800EE0E16A1AF8052008F8DA
:104F70000120491CE1623F2904D15A460A4800F049
:104F800015F8E6626D1CBD42EEDBB9F1000F07D0EB
:104F9000E16A002904D05A46034800F007F8E662A7
:104FA000BDE8F09F14000020D403002000F0B2B848
:104FB00030B50C490B68596ADC6A621C50434FF4E7
:104FC0007A72B0FBF2F500205A6A8A4202D3511A73
:104FD000084403E0611A11440844401C1146A842E9
:104FE000F2D330BD180300202DE9F04FDFF818810F
:104FF000464987B0D8F80400D8F81840B1FBF0F75C
:10500000002081468DF80000002C73DBDFF800A142
:105010004FF0010B0AF5806600254FE0401CB842B6
:105020004BD1B8F82400C0053FD51AF8040020F091
:10503000800002909DF8000058B19DF8042002996C
:105040008A420CD1401CC0B28DF8000080281AD0D2
:1050500032E002988DF804008DF800B02CE00128B1
:105060000AD0401E40F080008DF80000002364222A
:1050700001216846FFF76CFF00236422012101A88B
:10508000FFF766FFE5E7FF208DF8000000236422AC
:1050900001216846FFF75CFF00236422012101A87B
:1050A000FFF756FF8DF8009006E00AEB040000239E
:1050B00064220121FFF74CFF00206D1C56F82410DC
:1050C000A942ABD8641EA7D59DF8000090B1012875
:1050D0000AD0401E40F080008DF8000000236422BA
:1050E00001216846FFF734FF00236422012101A853
:1050F000FFF72EFF0021012364220846FFF728FF57
:1051000007B0BDE8F08F00001400002040420F00FF
:10511000140400202DE9F04107460E4614460A48C3
:10512000D0F8B852D5F814222AB1641E09D3012050
:10513000FFF7ACFEF6E7B1B23846BDE8F041FBF749
:1051400065B90220BDE8F0811419002001020203B4
:105150000405060708090A0B0C0D0E0F10100000BD
:105160000000000000000102030406070809000017
:105170000000010203040000985100080000002014
:10518000B8010000280100085C520008B8010020A6
:10519000782F000084010008320182100326127A61
:1051A000E2041395381B08D5041AE1041309391BCE
:1051B0000845041A650C1AA1041704030904120116
:1051C000140202021640830440571D0201020375B7
:1051D000031A1A0313B1031B08AD041AA5041AD548
:1051E0000441130A0632022A40B01C090243471147
:1051F0001CC03209891B01020B130524161001057E
:1052000024011009010424020205240617010705E0
:105210008203081C1009047D320A1D0705010243A0
:105220002C070581070938442A40072A8107112BDA
:105230000907440A3B0444136D351408CB344C0869
:105240007736E81A11101A51101A9B04C11A551812
:0C5250001A49041A61041A3D0400000011
:04000005080000ED02
:00000001FF
